{
  "contractName": "CErc20",
  "abi": [
    {
      "anonymous": false,
      "inputs": [
        {
          "indexed": false,
          "internalType": "uint256",
          "name": "cashPrior",
          "type": "uint256"
        },
        {
          "indexed": false,
          "internalType": "uint256",
          "name": "interestAccumulated",
          "type": "uint256"
        },
        {
          "indexed": false,
          "internalType": "uint256",
          "name": "borrowIndex",
          "type": "uint256"
        },
        {
          "indexed": false,
          "internalType": "uint256",
          "name": "totalBorrows",
          "type": "uint256"
        }
      ],
      "name": "AccrueInterest",
      "type": "event"
    },
    {
      "anonymous": false,
      "inputs": [
        {
          "indexed": true,
          "internalType": "address",
          "name": "owner",
          "type": "address"
        },
        {
          "indexed": true,
          "internalType": "address",
          "name": "spender",
          "type": "address"
        },
        {
          "indexed": false,
          "internalType": "uint256",
          "name": "amount",
          "type": "uint256"
        }
      ],
      "name": "Approval",
      "type": "event"
    },
    {
      "anonymous": false,
      "inputs": [
        {
          "indexed": true,
          "internalType": "address",
          "name": "borrower",
          "type": "address"
        },
        {
          "indexed": false,
          "internalType": "uint256",
          "name": "borrowAmount",
          "type": "uint256"
        },
        {
          "indexed": false,
          "internalType": "uint256",
          "name": "accountBorrows",
          "type": "uint256"
        },
        {
          "indexed": false,
          "internalType": "uint256",
          "name": "totalBorrows",
          "type": "uint256"
        }
      ],
      "name": "Borrow",
      "type": "event"
    },
    {
      "anonymous": false,
      "inputs": [
        {
          "indexed": false,
          "internalType": "uint256",
          "name": "error",
          "type": "uint256"
        },
        {
          "indexed": false,
          "internalType": "uint256",
          "name": "info",
          "type": "uint256"
        },
        {
          "indexed": false,
          "internalType": "uint256",
          "name": "detail",
          "type": "uint256"
        }
      ],
      "name": "CTokenStorageFailure",
      "type": "event"
    },
    {
      "anonymous": false,
      "inputs": [
        {
          "indexed": true,
          "internalType": "address",
          "name": "liquidator",
          "type": "address"
        },
        {
          "indexed": true,
          "internalType": "address",
          "name": "borrower",
          "type": "address"
        },
        {
          "indexed": false,
          "internalType": "uint256",
          "name": "repayAmount",
          "type": "uint256"
        },
        {
          "indexed": true,
          "internalType": "address",
          "name": "cTokenCollateral",
          "type": "address"
        },
        {
          "indexed": false,
          "internalType": "uint256",
          "name": "seizeTokens",
          "type": "uint256"
        }
      ],
      "name": "LiquidateBorrow",
      "type": "event"
    },
    {
      "anonymous": false,
      "inputs": [
        {
          "indexed": true,
          "internalType": "address",
          "name": "minter",
          "type": "address"
        },
        {
          "indexed": false,
          "internalType": "uint256",
          "name": "mintAmount",
          "type": "uint256"
        },
        {
          "indexed": false,
          "internalType": "uint256",
          "name": "mintTokens",
          "type": "uint256"
        }
      ],
      "name": "Mint",
      "type": "event"
    },
    {
      "anonymous": false,
      "inputs": [
        {
          "indexed": false,
          "internalType": "address",
          "name": "oldAdmin",
          "type": "address"
        },
        {
          "indexed": false,
          "internalType": "address",
          "name": "newAdmin",
          "type": "address"
        }
      ],
      "name": "NewAdmin",
      "type": "event"
    },
    {
      "anonymous": false,
      "inputs": [
        {
          "indexed": false,
          "internalType": "contract ComptrollerInterface",
          "name": "oldComptroller",
          "type": "address"
        },
        {
          "indexed": false,
          "internalType": "contract ComptrollerInterface",
          "name": "newComptroller",
          "type": "address"
        }
      ],
      "name": "NewComptroller",
      "type": "event"
    },
    {
      "anonymous": false,
      "inputs": [
        {
          "indexed": false,
          "internalType": "contract InterestRateModel",
          "name": "oldInterestRateModel",
          "type": "address"
        },
        {
          "indexed": false,
          "internalType": "contract InterestRateModel",
          "name": "newInterestRateModel",
          "type": "address"
        }
      ],
      "name": "NewMarketInterestRateModel",
      "type": "event"
    },
    {
      "anonymous": false,
      "inputs": [
        {
          "indexed": false,
          "internalType": "address",
          "name": "oldPendingAdmin",
          "type": "address"
        },
        {
          "indexed": false,
          "internalType": "address",
          "name": "newPendingAdmin",
          "type": "address"
        }
      ],
      "name": "NewPendingAdmin",
      "type": "event"
    },
    {
      "anonymous": false,
      "inputs": [
        {
          "indexed": false,
          "internalType": "uint256",
          "name": "oldReserveFactorMantissa",
          "type": "uint256"
        },
        {
          "indexed": false,
          "internalType": "uint256",
          "name": "newReserveFactorMantissa",
          "type": "uint256"
        }
      ],
      "name": "NewReserveFactor",
      "type": "event"
    },
    {
      "anonymous": false,
      "inputs": [
        {
          "indexed": true,
          "internalType": "address",
          "name": "redeemer",
          "type": "address"
        },
        {
          "indexed": false,
          "internalType": "uint256",
          "name": "redeemAmount",
          "type": "uint256"
        },
        {
          "indexed": false,
          "internalType": "uint256",
          "name": "redeemTokens",
          "type": "uint256"
        }
      ],
      "name": "Redeem",
      "type": "event"
    },
    {
      "anonymous": false,
      "inputs": [
        {
          "indexed": true,
          "internalType": "address",
          "name": "payer",
          "type": "address"
        },
        {
          "indexed": true,
          "internalType": "address",
          "name": "borrower",
          "type": "address"
        },
        {
          "indexed": false,
          "internalType": "uint256",
          "name": "repayAmount",
          "type": "uint256"
        },
        {
          "indexed": false,
          "internalType": "uint256",
          "name": "accountBorrows",
          "type": "uint256"
        },
        {
          "indexed": false,
          "internalType": "uint256",
          "name": "totalBorrows",
          "type": "uint256"
        }
      ],
      "name": "RepayBorrow",
      "type": "event"
    },
    {
      "anonymous": false,
      "inputs": [
        {
          "indexed": false,
          "internalType": "address",
          "name": "benefactor",
          "type": "address"
        },
        {
          "indexed": false,
          "internalType": "uint256",
          "name": "addAmount",
          "type": "uint256"
        },
        {
          "indexed": false,
          "internalType": "uint256",
          "name": "newTotalReserves",
          "type": "uint256"
        }
      ],
      "name": "ReservesAdded",
      "type": "event"
    },
    {
      "anonymous": false,
      "inputs": [
        {
          "indexed": false,
          "internalType": "address",
          "name": "admin",
          "type": "address"
        },
        {
          "indexed": false,
          "internalType": "uint256",
          "name": "reduceAmount",
          "type": "uint256"
        },
        {
          "indexed": false,
          "internalType": "uint256",
          "name": "newTotalReserves",
          "type": "uint256"
        }
      ],
      "name": "ReservesReduced",
      "type": "event"
    },
    {
      "anonymous": false,
      "inputs": [
        {
          "indexed": false,
          "internalType": "address",
          "name": "benefactor",
          "type": "address"
        },
        {
          "indexed": false,
          "internalType": "uint256",
          "name": "addAmount",
          "type": "uint256"
        },
        {
          "indexed": false,
          "internalType": "uint256",
          "name": "newSubsidyFund",
          "type": "uint256"
        }
      ],
      "name": "SubsidyAdded",
      "type": "event"
    },
    {
      "anonymous": false,
      "inputs": [
        {
          "indexed": false,
          "internalType": "uint256",
          "name": "error",
          "type": "uint256"
        },
        {
          "indexed": false,
          "internalType": "uint256",
          "name": "info",
          "type": "uint256"
        },
        {
          "indexed": false,
          "internalType": "uint256",
          "name": "detail",
          "type": "uint256"
        }
      ],
      "name": "TokenFailure",
      "type": "event"
    },
    {
      "anonymous": false,
      "inputs": [
        {
          "indexed": true,
          "internalType": "address",
          "name": "from",
          "type": "address"
        },
        {
          "indexed": true,
          "internalType": "address",
          "name": "to",
          "type": "address"
        },
        {
          "indexed": false,
          "internalType": "uint256",
          "name": "amount",
          "type": "uint256"
        }
      ],
      "name": "Transfer",
      "type": "event"
    },
    {
      "inputs": [],
      "name": "_acceptAdmin",
      "outputs": [
        {
          "internalType": "uint256",
          "name": "",
          "type": "uint256"
        }
      ],
      "stateMutability": "nonpayable",
      "type": "function"
    },
    {
      "inputs": [
        {
          "internalType": "uint256",
          "name": "reduceAmount",
          "type": "uint256"
        }
      ],
      "name": "_reduceReserves",
      "outputs": [
        {
          "internalType": "uint256",
          "name": "",
          "type": "uint256"
        }
      ],
      "stateMutability": "nonpayable",
      "type": "function"
    },
    {
      "inputs": [
        {
          "internalType": "contract ComptrollerInterface",
          "name": "newComptroller",
          "type": "address"
        }
      ],
      "name": "_setComptroller",
      "outputs": [
        {
          "internalType": "uint256",
          "name": "",
          "type": "uint256"
        }
      ],
      "stateMutability": "nonpayable",
      "type": "function"
    },
    {
      "inputs": [
        {
          "internalType": "contract InterestRateModel",
          "name": "newInterestRateModel",
          "type": "address"
        }
      ],
      "name": "_setInterestRateModel",
      "outputs": [
        {
          "internalType": "uint256",
          "name": "",
          "type": "uint256"
        }
      ],
      "stateMutability": "nonpayable",
      "type": "function"
    },
    {
      "inputs": [
        {
          "internalType": "address payable",
          "name": "newPendingAdmin",
          "type": "address"
        }
      ],
      "name": "_setPendingAdmin",
      "outputs": [
        {
          "internalType": "uint256",
          "name": "",
          "type": "uint256"
        }
      ],
      "stateMutability": "nonpayable",
      "type": "function"
    },
    {
      "inputs": [
        {
          "internalType": "uint256",
          "name": "newReserveFactorMantissa",
          "type": "uint256"
        }
      ],
      "name": "_setReserveFactor",
      "outputs": [
        {
          "internalType": "uint256",
          "name": "",
          "type": "uint256"
        }
      ],
      "stateMutability": "nonpayable",
      "type": "function"
    },
    {
      "inputs": [],
      "name": "accrualBlockNumber",
      "outputs": [
        {
          "internalType": "uint256",
          "name": "",
          "type": "uint256"
        }
      ],
      "stateMutability": "view",
      "type": "function"
    },
    {
      "inputs": [],
      "name": "accrueInterest",
      "outputs": [
        {
          "internalType": "uint256",
          "name": "",
          "type": "uint256"
        }
      ],
      "stateMutability": "nonpayable",
      "type": "function"
    },
    {
      "inputs": [],
      "name": "admin",
      "outputs": [
        {
          "internalType": "address payable",
          "name": "",
          "type": "address"
        }
      ],
      "stateMutability": "view",
      "type": "function"
    },
    {
      "inputs": [
        {
          "internalType": "address",
          "name": "owner",
          "type": "address"
        },
        {
          "internalType": "address",
          "name": "spender",
          "type": "address"
        }
      ],
      "name": "allowance",
      "outputs": [
        {
          "internalType": "uint256",
          "name": "",
          "type": "uint256"
        }
      ],
      "stateMutability": "view",
      "type": "function"
    },
    {
      "inputs": [
        {
          "internalType": "address",
          "name": "spender",
          "type": "address"
        },
        {
          "internalType": "uint256",
          "name": "amount",
          "type": "uint256"
        }
      ],
      "name": "approve",
      "outputs": [
        {
          "internalType": "bool",
          "name": "",
          "type": "bool"
        }
      ],
      "stateMutability": "nonpayable",
      "type": "function"
    },
    {
      "inputs": [
        {
          "internalType": "address",
          "name": "owner",
          "type": "address"
        }
      ],
      "name": "balanceOf",
      "outputs": [
        {
          "internalType": "uint256",
          "name": "",
          "type": "uint256"
        }
      ],
      "stateMutability": "view",
      "type": "function"
    },
    {
      "inputs": [
        {
          "internalType": "address",
          "name": "owner",
          "type": "address"
        }
      ],
      "name": "balanceOfUnderlying",
      "outputs": [
        {
          "internalType": "uint256",
          "name": "",
          "type": "uint256"
        }
      ],
      "stateMutability": "nonpayable",
      "type": "function"
    },
    {
      "inputs": [
        {
          "internalType": "address",
          "name": "account",
          "type": "address"
        }
      ],
      "name": "borrowBalanceCurrent",
      "outputs": [
        {
          "internalType": "uint256",
          "name": "",
          "type": "uint256"
        }
      ],
      "stateMutability": "nonpayable",
      "type": "function"
    },
    {
      "inputs": [
        {
          "internalType": "address",
          "name": "account",
          "type": "address"
        }
      ],
      "name": "borrowBalanceStored",
      "outputs": [
        {
          "internalType": "uint256",
          "name": "",
          "type": "uint256"
        }
      ],
      "stateMutability": "view",
      "type": "function"
    },
    {
      "inputs": [],
      "name": "borrowIndex",
      "outputs": [
        {
          "internalType": "uint256",
          "name": "",
          "type": "uint256"
        }
      ],
      "stateMutability": "view",
      "type": "function"
    },
    {
      "inputs": [],
      "name": "borrowRatePerBlock",
      "outputs": [
        {
          "internalType": "uint256",
          "name": "",
          "type": "uint256"
        }
      ],
      "stateMutability": "view",
      "type": "function"
    },
    {
      "inputs": [],
      "name": "comptroller",
      "outputs": [
        {
          "internalType": "contract ComptrollerInterface",
          "name": "",
          "type": "address"
        }
      ],
      "stateMutability": "view",
      "type": "function"
    },
    {
      "inputs": [],
      "name": "decimals",
      "outputs": [
        {
          "internalType": "uint8",
          "name": "",
          "type": "uint8"
        }
      ],
      "stateMutability": "view",
      "type": "function"
    },
    {
      "inputs": [],
      "name": "exchangeRateCurrent",
      "outputs": [
        {
          "internalType": "uint256",
          "name": "",
          "type": "uint256"
        }
      ],
      "stateMutability": "nonpayable",
      "type": "function"
    },
    {
      "inputs": [],
      "name": "exchangeRateStored",
      "outputs": [
        {
          "internalType": "uint256",
          "name": "",
          "type": "uint256"
        }
      ],
      "stateMutability": "view",
      "type": "function"
    },
    {
      "inputs": [
        {
          "internalType": "address",
          "name": "account",
          "type": "address"
        }
      ],
      "name": "getAccountSnapshot",
      "outputs": [
        {
          "internalType": "uint256",
          "name": "",
          "type": "uint256"
        },
        {
          "internalType": "uint256",
          "name": "",
          "type": "uint256"
        },
        {
          "internalType": "uint256",
          "name": "",
          "type": "uint256"
        },
        {
          "internalType": "uint256",
          "name": "",
          "type": "uint256"
        }
      ],
      "stateMutability": "view",
      "type": "function"
    },
    {
      "inputs": [
        {
          "internalType": "address",
          "name": "account",
          "type": "address"
        }
      ],
      "name": "getBorrowerPrincipalStored",
      "outputs": [
        {
          "internalType": "uint256",
          "name": "borrowed",
          "type": "uint256"
        }
      ],
      "stateMutability": "view",
      "type": "function"
    },
    {
      "inputs": [],
      "name": "getCash",
      "outputs": [
        {
          "internalType": "uint256",
          "name": "",
          "type": "uint256"
        }
      ],
      "stateMutability": "view",
      "type": "function"
    },
    {
      "inputs": [
        {
          "internalType": "address",
          "name": "account",
          "type": "address"
        }
      ],
      "name": "getSupplierSnapshotStored",
      "outputs": [
        {
          "internalType": "uint256",
          "name": "tokens",
          "type": "uint256"
        },
        {
          "internalType": "uint256",
          "name": "underlyingAmount",
          "type": "uint256"
        },
        {
          "internalType": "uint256",
          "name": "suppliedAt",
          "type": "uint256"
        },
        {
          "internalType": "uint256",
          "name": "promisedSupplyRate",
          "type": "uint256"
        }
      ],
      "stateMutability": "view",
      "type": "function"
    },
    {
      "inputs": [],
      "name": "initialExchangeRateMantissa",
      "outputs": [
        {
          "internalType": "uint256",
          "name": "",
          "type": "uint256"
        }
      ],
      "stateMutability": "view",
      "type": "function"
    },
    {
      "inputs": [],
      "name": "interestRateModel",
      "outputs": [
        {
          "internalType": "contract InterestRateModel",
          "name": "",
          "type": "address"
        }
      ],
      "stateMutability": "view",
      "type": "function"
    },
    {
      "inputs": [],
      "name": "isCToken",
      "outputs": [
        {
          "internalType": "bool",
          "name": "",
          "type": "bool"
        }
      ],
      "stateMutability": "view",
      "type": "function"
    },
    {
      "inputs": [],
      "name": "name",
      "outputs": [
        {
          "internalType": "string",
          "name": "",
          "type": "string"
        }
      ],
      "stateMutability": "view",
      "type": "function"
    },
    {
      "inputs": [],
      "name": "pendingAdmin",
      "outputs": [
        {
          "internalType": "address payable",
          "name": "",
          "type": "address"
        }
      ],
      "stateMutability": "view",
      "type": "function"
    },
    {
      "inputs": [],
      "name": "reserveFactorMantissa",
      "outputs": [
        {
          "internalType": "uint256",
          "name": "",
          "type": "uint256"
        }
      ],
      "stateMutability": "view",
      "type": "function"
    },
    {
      "inputs": [
        {
          "internalType": "address",
          "name": "liquidator",
          "type": "address"
        },
        {
          "internalType": "address",
          "name": "borrower",
          "type": "address"
        },
        {
          "internalType": "uint256",
          "name": "seizeTokens",
          "type": "uint256"
        }
      ],
      "name": "seize",
      "outputs": [
        {
          "internalType": "uint256",
          "name": "",
          "type": "uint256"
        }
      ],
      "stateMutability": "nonpayable",
      "type": "function"
    },
    {
      "inputs": [],
      "name": "subsidyFund",
      "outputs": [
        {
          "internalType": "uint256",
          "name": "",
          "type": "uint256"
        }
      ],
      "stateMutability": "view",
      "type": "function"
    },
    {
      "inputs": [],
      "name": "supplyRatePerBlock",
      "outputs": [
        {
          "internalType": "uint256",
          "name": "",
          "type": "uint256"
        }
      ],
      "stateMutability": "view",
      "type": "function"
    },
    {
      "inputs": [],
      "name": "symbol",
      "outputs": [
        {
          "internalType": "string",
          "name": "",
          "type": "string"
        }
      ],
      "stateMutability": "view",
      "type": "function"
    },
    {
      "inputs": [],
      "name": "totalBorrows",
      "outputs": [
        {
          "internalType": "uint256",
          "name": "",
          "type": "uint256"
        }
      ],
      "stateMutability": "view",
      "type": "function"
    },
    {
      "inputs": [],
      "name": "totalBorrowsCurrent",
      "outputs": [
        {
          "internalType": "uint256",
          "name": "",
          "type": "uint256"
        }
      ],
      "stateMutability": "nonpayable",
      "type": "function"
    },
    {
      "inputs": [],
      "name": "totalReserves",
      "outputs": [
        {
          "internalType": "uint256",
          "name": "",
          "type": "uint256"
        }
      ],
      "stateMutability": "view",
      "type": "function"
    },
    {
      "inputs": [],
      "name": "totalSupply",
      "outputs": [
        {
          "internalType": "uint256",
          "name": "",
          "type": "uint256"
        }
      ],
      "stateMutability": "view",
      "type": "function"
    },
    {
      "inputs": [
        {
          "internalType": "address",
          "name": "dst",
          "type": "address"
        },
        {
          "internalType": "uint256",
          "name": "amount",
          "type": "uint256"
        }
      ],
      "name": "transfer",
      "outputs": [
        {
          "internalType": "bool",
          "name": "",
          "type": "bool"
        }
      ],
      "stateMutability": "nonpayable",
      "type": "function"
    },
    {
      "inputs": [
        {
          "internalType": "address",
          "name": "src",
          "type": "address"
        },
        {
          "internalType": "address",
          "name": "dst",
          "type": "address"
        },
        {
          "internalType": "uint256",
          "name": "amount",
          "type": "uint256"
        }
      ],
      "name": "transferFrom",
      "outputs": [
        {
          "internalType": "bool",
          "name": "",
          "type": "bool"
        }
      ],
      "stateMutability": "nonpayable",
      "type": "function"
    },
    {
      "inputs": [
        {
          "internalType": "address",
          "name": "account",
          "type": "address"
        }
      ],
      "name": "tropykusInterestAccrued",
      "outputs": [
        {
          "internalType": "enum CarefulMath.MathError",
          "name": "",
          "type": "uint8"
        },
        {
          "internalType": "uint256",
          "name": "",
          "type": "uint256"
        },
        {
          "internalType": "uint256",
          "name": "",
          "type": "uint256"
        }
      ],
      "stateMutability": "view",
      "type": "function"
    },
    {
      "inputs": [],
      "name": "underlying",
      "outputs": [
        {
          "internalType": "address",
          "name": "",
          "type": "address"
        }
      ],
      "stateMutability": "view",
      "type": "function"
    },
    {
      "inputs": [
        {
          "internalType": "address",
          "name": "underlying_",
          "type": "address"
        },
        {
          "internalType": "contract ComptrollerInterface",
          "name": "comptroller_",
          "type": "address"
        },
        {
          "internalType": "contract InterestRateModel",
          "name": "interestRateModel_",
          "type": "address"
        },
        {
          "internalType": "uint256",
          "name": "initialExchangeRateMantissa_",
          "type": "uint256"
        },
        {
          "internalType": "string",
          "name": "name_",
          "type": "string"
        },
        {
          "internalType": "string",
          "name": "symbol_",
          "type": "string"
        },
        {
          "internalType": "uint8",
          "name": "decimals_",
          "type": "uint8"
        }
      ],
      "name": "initialize",
      "outputs": [],
      "stateMutability": "nonpayable",
      "type": "function"
    },
    {
      "inputs": [
        {
          "internalType": "contract ComptrollerInterface",
          "name": "comptroller_",
          "type": "address"
        },
        {
          "internalType": "contract InterestRateModel",
          "name": "interestRateModel_",
          "type": "address"
        },
        {
          "internalType": "uint256",
          "name": "initialExchangeRateMantissa_",
          "type": "uint256"
        },
        {
          "internalType": "string",
          "name": "name_",
          "type": "string"
        },
        {
          "internalType": "string",
          "name": "symbol_",
          "type": "string"
        },
        {
          "internalType": "uint8",
          "name": "decimals_",
          "type": "uint8"
        }
      ],
      "name": "initialize",
      "outputs": [],
      "stateMutability": "nonpayable",
      "type": "function"
    },
    {
      "inputs": [
        {
          "internalType": "uint256",
          "name": "mintAmount",
          "type": "uint256"
        }
      ],
      "name": "mint",
      "outputs": [
        {
          "internalType": "uint256",
          "name": "",
          "type": "uint256"
        }
      ],
      "stateMutability": "nonpayable",
      "type": "function"
    },
    {
      "inputs": [
        {
          "internalType": "uint256",
          "name": "redeemAmount",
          "type": "uint256"
        }
      ],
      "name": "redeem",
      "outputs": [
        {
          "internalType": "uint256",
          "name": "",
          "type": "uint256"
        }
      ],
      "stateMutability": "nonpayable",
      "type": "function"
    },
    {
      "inputs": [
        {
          "internalType": "uint256",
          "name": "borrowAmount",
          "type": "uint256"
        }
      ],
      "name": "borrow",
      "outputs": [
        {
          "internalType": "uint256",
          "name": "",
          "type": "uint256"
        }
      ],
      "stateMutability": "nonpayable",
      "type": "function"
    },
    {
      "inputs": [
        {
          "internalType": "uint256",
          "name": "repayAmount",
          "type": "uint256"
        }
      ],
      "name": "repayBorrow",
      "outputs": [
        {
          "internalType": "uint256",
          "name": "",
          "type": "uint256"
        }
      ],
      "stateMutability": "nonpayable",
      "type": "function"
    },
    {
      "inputs": [
        {
          "internalType": "address",
          "name": "borrower",
          "type": "address"
        },
        {
          "internalType": "uint256",
          "name": "repayAmount",
          "type": "uint256"
        },
        {
          "internalType": "contract CTokenInterface",
          "name": "cTokenCollateral",
          "type": "address"
        }
      ],
      "name": "liquidateBorrow",
      "outputs": [
        {
          "internalType": "uint256",
          "name": "",
          "type": "uint256"
        }
      ],
      "stateMutability": "nonpayable",
      "type": "function"
    },
    {
      "inputs": [
        {
          "internalType": "contract EIP20NonStandardInterface",
          "name": "token",
          "type": "address"
        }
      ],
      "name": "sweepToken",
      "outputs": [],
      "stateMutability": "nonpayable",
      "type": "function"
    },
    {
      "inputs": [
        {
          "internalType": "uint256",
          "name": "addAmount",
          "type": "uint256"
        }
      ],
      "name": "_addReserves",
      "outputs": [
        {
          "internalType": "uint256",
          "name": "",
          "type": "uint256"
        }
      ],
      "stateMutability": "nonpayable",
      "type": "function"
    }
  ],
  "bytecode": "0x60806040523480156200001157600080fd5b506195ae80620000226000396000f3fe608060405234801561001057600080fd5b506004361061030c5760003560e01c80638f840ddd1161019d578063c37f68e2116100e9578063f3fdb15a116100a2578063f8f9da281161007c578063f8f9da2814610a3d578063fc610b3d14610a5b578063fca7820b14610a8d578063fe9c44ae14610abd5761030c565b8063f3fdb15a146109d1578063f5e3c462146109ef578063f851a44014610a1f5761030c565b8063c37f68e2146108c0578063c5ebeaec146108f3578063db006a7514610923578063dd62ed3e14610953578063e9c714f214610983578063f2b3abbd146109a15761030c565b8063a9059cbb11610156578063b2a02ff111610130578063b2a02ff114610812578063b71d1a0c14610842578063bd6d894d14610872578063c139562b146108905761030c565b8063a9059cbb146107a6578063aa5af0fd146107d6578063ae9d70b0146107f45761030c565b80638f840ddd146106d057806395d89b41146106ee57806395dd91931461070c57806399d8c1b41461073c578063a0712d6814610758578063a6afed95146107885761030c565b80633af9e6691161025c5780635fe3b567116102155780636c540baf116101ef5780636c540baf146106465780636f307dc31461066457806370a082311461068257806373acee98146106b25761030c565b80635fe3b567146105da578063601a0bf1146105f8578063675d972c146106285761030c565b80633af9e669146104db5780633b1d21a21461050b5780633e941010146105295780634576b5db1461055957806347bd371814610589578063524fe4b5146105a75761030c565b8063182df0f5116102c95780631df0ba9d116102a35780631df0ba9d1461045157806323b872dd1461046f578063267822471461049f578063313ce567146104bd5761030c565b8063182df0f5146103fb5780631a31d465146104195780631be19560146104355761030c565b806306fdde0314610311578063095ea7b31461032f5780630e7527021461035f578063173b99041461038f57806317bfdfbc146103ad57806318160ddd146103dd575b600080fd5b610319610adb565b6040516103269190618686565b60405180910390f35b61034960048036038101906103449190617be2565b610b69565b60405161035691906185ac565b60405180910390f35b61037960048036038101906103749190617e2e565b610c5b565b6040516103869190618a28565b60405180910390f35b610397610c73565b6040516103a49190618a28565b60405180910390f35b6103c760048036038101906103c29190617a1b565b610c79565b6040516103d49190618a28565b60405180910390f35b6103e5610d69565b6040516103f29190618a28565b60405180910390f35b610403610d6f565b6040516104109190618a28565b60405180910390f35b610433600480360381019061042e9190617b08565b610def565b005b61044f600480360381019061044a9190617d94565b610ee8565b005b610459611099565b6040516104669190618a28565b60405180910390f35b61048960048036038101906104849190617ab5565b61109f565b60405161049691906185ac565b60405180910390f35b6104a761114d565b6040516104b49190618386565b60405180910390f35b6104c5611173565b6040516104d29190618b1f565b60405180910390f35b6104f560048036038101906104f09190617a1b565b611186565b6040516105029190618a28565b60405180910390f35b610513611261565b6040516105209190618a28565b60405180910390f35b610543600480360381019061053e9190617e2e565b611270565b6040516105509190618a28565b60405180910390f35b610573600480360381019061056e9190617ca2565b611282565b6040516105809190618a28565b60405180910390f35b610591611457565b60405161059e9190618a28565b60405180910390f35b6105c160048036038101906105bc9190617a1b565b61145d565b6040516105d19493929190618ada565b60405180910390f35b6105e261157e565b6040516105ef91906185c7565b60405180910390f35b610612600480360381019061060d9190617e2e565b6115a4565b60405161061f9190618a28565b60405180910390f35b610630611664565b60405161063d9190618a28565b60405180910390f35b61064e61166a565b60405161065b9190618a28565b60405180910390f35b61066c611670565b604051610679919061836b565b60405180910390f35b61069c60048036038101906106979190617a1b565b611696565b6040516106a99190618a28565b60405180910390f35b6106ba6116e2565b6040516106c79190618a28565b60405180910390f35b6106d86117ca565b6040516106e59190618a28565b60405180910390f35b6106f66117d0565b6040516107039190618686565b60405180910390f35b61072660048036038101906107219190617a1b565b61185e565b6040516107339190618a28565b60405180910390f35b61075660048036038101906107519190617ccf565b6118e1565b005b610772600480360381019061076d9190617e2e565b611b5b565b60405161077f9190618a28565b60405180910390f35b610790611b73565b60405161079d9190618a28565b60405180910390f35b6107c060048036038101906107bb9190617be2565b61202b565b6040516107cd91906185ac565b60405180910390f35b6107de6120d8565b6040516107eb9190618a28565b60405180910390f35b6107fc6120de565b6040516108099190618a28565b60405180910390f35b61082c60048036038101906108279190617ab5565b6121a3565b6040516108399190618a28565b60405180910390f35b61085c60048036038101906108579190617a48565b61223c565b6040516108699190618a28565b60405180910390f35b61087a612355565b6040516108879190618a28565b60405180910390f35b6108aa60048036038101906108a59190617a1b565b612442565b6040516108b79190618a28565b60405180910390f35b6108da60048036038101906108d59190617a1b565b61248e565b6040516108ea9493929190618ada565b60405180910390f35b61090d60048036038101906109089190617e2e565b61258d565b60405161091a9190618a28565b60405180910390f35b61093d60048036038101906109389190617e2e565b61259f565b60405161094a9190618a28565b60405180910390f35b61096d60048036038101906109689190617a75565b6125b1565b60405161097a9190618a28565b60405180910390f35b61098b612638565b6040516109989190618a28565b60405180910390f35b6109bb60048036038101906109b69190617dc1565b6128a0565b6040516109c89190618a28565b60405180910390f35b6109d96128dd565b6040516109e6919061860b565b60405180910390f35b610a096004803603810190610a049190617c22565b612903565b604051610a169190618a28565b60405180910390f35b610a2761291f565b604051610a349190618386565b60405180910390f35b610a45612945565b604051610a529190618a28565b60405180910390f35b610a756004803603810190610a709190617a1b565b612a06565b604051610a849392919061864f565b60405180910390f35b610aa76004803603810190610aa29190617e2e565b612b0f565b604051610ab49190618a28565b60405180910390f35b610ac5612bcf565b604051610ad291906185ac565b60405180910390f35b60018054610ae890618e67565b80601f0160208091040260200160405190810160405280929190818152602001828054610b1490618e67565b8015610b615780601f10610b3657610100808354040283529160200191610b61565b820191906000526020600020905b815481529060010190602001808311610b4457829003601f168201915b505050505081565b600081601060003373ffffffffffffffffffffffffffffffffffffffff1673ffffffffffffffffffffffffffffffffffffffff16815260200190815260200160002060008573ffffffffffffffffffffffffffffffffffffffff1673ffffffffffffffffffffffffffffffffffffffff168152602001908152602001600020819055508273ffffffffffffffffffffffffffffffffffffffff163373ffffffffffffffffffffffffffffffffffffffff167f8c5be1e5ebec7d5bd14f71427d1e84f3dd0314c0f7b2291e5b200ac8c7c3b92584604051610c499190618a28565b60405180910390a36001905092915050565b600080610c6783612bd4565b50905080915050919050565b60085481565b60008060009054906101000a900460ff16610cc9576040517f08c379a0000000000000000000000000000000000000000000000000000000008152600401610cc0906186c8565b60405180910390fd5b60008060006101000a81548160ff02191690831515021790555060006010811115610cf757610cf6618f57565b5b610cff611b73565b14610d3f576040517f08c379a0000000000000000000000000000000000000000000000000000000008152600401610d36906187c8565b60405180910390fd5b610d488261185e565b905060016000806101000a81548160ff021916908315150217905550919050565b600d5481565b6000806000610d7c612c98565b9150915060006003811115610d9457610d93618f57565b5b826003811115610da757610da6618f57565b5b14610de7576040517f08c379a0000000000000000000000000000000000000000000000000000000008152600401610dde906188a8565b60405180910390fd5b809250505090565b610dfd8686868686866118e1565b86601260006101000a81548173ffffffffffffffffffffffffffffffffffffffff021916908373ffffffffffffffffffffffffffffffffffffffff160217905550601260009054906101000a900473ffffffffffffffffffffffffffffffffffffffff1673ffffffffffffffffffffffffffffffffffffffff166318160ddd6040518163ffffffff1660e01b815260040160206040518083038186803b158015610ea657600080fd5b505afa158015610eba573d6000803e3d6000fd5b505050506040513d601f19601f82011682018060405250810190610ede9190617e5b565b5050505050505050565b601260009054906101000a900473ffffffffffffffffffffffffffffffffffffffff1673ffffffffffffffffffffffffffffffffffffffff168173ffffffffffffffffffffffffffffffffffffffff161415610f79576040517f08c379a0000000000000000000000000000000000000000000000000000000008152600401610f7090618a08565b60405180910390fd5b60008173ffffffffffffffffffffffffffffffffffffffff166370a08231306040518263ffffffff1660e01b8152600401610fb4919061836b565b60206040518083038186803b158015610fcc57600080fd5b505afa158015610fe0573d6000803e3d6000fd5b505050506040513d601f19601f820116820180604052508101906110049190617e5b565b90508173ffffffffffffffffffffffffffffffffffffffff1663a9059cbb600360019054906101000a900473ffffffffffffffffffffffffffffffffffffffff16836040518363ffffffff1660e01b81526004016110639291906183a1565b600060405180830381600087803b15801561107d57600080fd5b505af1158015611091573d6000803e3d6000fd5b505050505050565b600e5481565b60008060009054906101000a900460ff166110ef576040517f08c379a00000000000000000000000000000000000000000000000000000000081526004016110e6906186c8565b60405180910390fd5b60008060006101000a81548160ff0219169083151502179055506000601081111561111d5761111c618f57565b5b61112933868686612e91565b14905060016000806101000a81548160ff0219169083151502179055509392505050565b600460009054906101000a900473ffffffffffffffffffffffffffffffffffffffff1681565b600360009054906101000a900460ff1681565b60008060006111ec60405180602001604052806111a1612355565b815250600f60008773ffffffffffffffffffffffffffffffffffffffff1673ffffffffffffffffffffffffffffffffffffffff16815260200190815260200160002060000154613381565b915091506000600381111561120457611203618f57565b5b82600381111561121757611216618f57565b5b14611257576040517f08c379a000000000000000000000000000000000000000000000000000000000815260040161124e90618888565b60405180910390fd5b8092505050919050565b600061126b6133e8565b905090565b600061127b8261349f565b9050919050565b6000600360019054906101000a900473ffffffffffffffffffffffffffffffffffffffff1673ffffffffffffffffffffffffffffffffffffffff163373ffffffffffffffffffffffffffffffffffffffff16146112de57600080fd5b6000600560009054906101000a900473ffffffffffffffffffffffffffffffffffffffff1690508273ffffffffffffffffffffffffffffffffffffffff16627e3dd26040518163ffffffff1660e01b815260040160206040518083038186803b15801561134a57600080fd5b505afa15801561135e573d6000803e3d6000fd5b505050506040513d601f19601f820116820180604052508101906113829190617c75565b6113c1576040517f08c379a00000000000000000000000000000000000000000000000000000000081526004016113b890618968565b60405180910390fd5b82600560006101000a81548173ffffffffffffffffffffffffffffffffffffffff021916908373ffffffffffffffffffffffffffffffffffffffff1602179055507f7ac369dbd14fa5ea3f473ed67cc9d598964a77501540ba6751eb0b3decf5870d81846040516114339291906185e2565b60405180910390a16000601081111561144f5761144e618f57565b5b915050919050565b600b5481565b600080600080600f60008673ffffffffffffffffffffffffffffffffffffffff1673ffffffffffffffffffffffffffffffffffffffff168152602001908152602001600020600001549350600f60008673ffffffffffffffffffffffffffffffffffffffff1673ffffffffffffffffffffffffffffffffffffffff168152602001908152602001600020600101549250600f60008673ffffffffffffffffffffffffffffffffffffffff1673ffffffffffffffffffffffffffffffffffffffff168152602001908152602001600020600201549150600f60008673ffffffffffffffffffffffffffffffffffffffff1673ffffffffffffffffffffffffffffffffffffffff1681526020019081526020016000206003015490509193509193565b600560009054906101000a900473ffffffffffffffffffffffffffffffffffffffff1681565b60008060009054906101000a900460ff166115f4576040517f08c379a00000000000000000000000000000000000000000000000000000000081526004016115eb906186c8565b60405180910390fd5b60008060006101000a81548160ff0219169083151502179055506000611618611b73565b90506000601081111561162e5761162d618f57565b5b811461163957600080fd5b61164283613627565b91505060016000806101000a81548160ff021916908315150217905550919050565b60075481565b60095481565b601260009054906101000a900473ffffffffffffffffffffffffffffffffffffffff1681565b6000600f60008373ffffffffffffffffffffffffffffffffffffffff1673ffffffffffffffffffffffffffffffffffffffff168152602001908152602001600020600001549050919050565b60008060009054906101000a900460ff16611732576040517f08c379a0000000000000000000000000000000000000000000000000000000008152600401611729906186c8565b60405180910390fd5b60008060006101000a81548160ff021916908315150217905550600060108111156117605761175f618f57565b5b611768611b73565b146117a8576040517f08c379a000000000000000000000000000000000000000000000000000000000815260040161179f906187c8565b60405180910390fd5b600b54905060016000806101000a81548160ff02191690831515021790555090565b600c5481565b600280546117dd90618e67565b80601f016020809104026020016040519081016040528092919081815260200182805461180990618e67565b80156118565780601f1061182b57610100808354040283529160200191611856565b820191906000526020600020905b81548152906001019060200180831161183957829003601f168201915b505050505081565b600080600061186c846137bd565b915091506000600381111561188457611883618f57565b5b82600381111561189757611896618f57565b5b146118d7576040517f08c379a00000000000000000000000000000000000000000000000000000000081526004016118ce90618728565b60405180910390fd5b8092505050919050565b600360019054906101000a900473ffffffffffffffffffffffffffffffffffffffff1673ffffffffffffffffffffffffffffffffffffffff163373ffffffffffffffffffffffffffffffffffffffff1614611971576040517f08c379a000000000000000000000000000000000000000000000000000000000815260040161196890618948565b60405180910390fd5b600060095414801561198557506000600a54145b6119c4576040517f08c379a00000000000000000000000000000000000000000000000000000000081526004016119bb906188e8565b60405180910390fd5b83600781905550600060075411611a10576040517f08c379a0000000000000000000000000000000000000000000000000000000008152600401611a0790618748565b60405180910390fd5b6000611a1b87611282565b905060006010811115611a3157611a30618f57565b5b8114611a72576040517f08c379a0000000000000000000000000000000000000000000000000000000008152600401611a6990618708565b60405180910390fd5b611a7a6138c5565b600981905550670de0b6b3a7640000600a81905550611a98866138cd565b905060006010811115611aae57611aad618f57565b5b8114611aef576040517f08c379a0000000000000000000000000000000000000000000000000000000008152600401611ae690618988565b60405180910390fd5b8360019080519060200190611b0592919061763f565b508260029080519060200190611b1c92919061763f565b5081600360006101000a81548160ff021916908360ff16021790555060016000806101000a81548160ff02191690831515021790555050505050505050565b600080611b6783613a81565b50905080915050919050565b600080611b7e6138c5565b90506000600954905081811415611bac5760006010811115611ba357611ba2618f57565b5b92505050612028565b6000611bb66133e8565b90506000600b5490506000600c5490506000600a5490506000600660009054906101000a900473ffffffffffffffffffffffffffffffffffffffff1673ffffffffffffffffffffffffffffffffffffffff166315f240538686866040518463ffffffff1660e01b8152600401611c2e93929190618aa3565b60206040518083038186803b158015611c4657600080fd5b505afa158015611c5a573d6000803e3d6000fd5b505050506040513d601f19601f82011682018060405250810190611c7e9190617e5b565b905065048c27395000811115611cc9576040517f08c379a0000000000000000000000000000000000000000000000000000000008152600401611cc0906188c8565b60405180910390fd5b600080611cd68989613c15565b9150915060006003811115611cee57611ced618f57565b5b826003811115611d0157611d00618f57565b5b14611d41576040517f08c379a0000000000000000000000000000000000000000000000000000000008152600401611d3890618828565b60405180910390fd5b611d496176c5565b600080600080611d6760405180602001604052808a81525087613c46565b809650819850505060006003811115611d8357611d82618f57565b5b876003811115611d9657611d95618f57565b5b14611da057600080fd5b611daa858c613381565b809550819850505060006003811115611dc657611dc5618f57565b5b876003811115611dd957611dd8618f57565b5b14611de357600080fd5b611ded848c613ccc565b809450819850505060006003811115611e0957611e08618f57565b5b876003811115611e1c57611e1b618f57565b5b14611e2657600080fd5b611e416040518060200160405280600854815250858c613d04565b809350819850505060006003811115611e5d57611e5c618f57565b5b876003811115611e7057611e6f618f57565b5b14611e7a57600080fd5b600660009054906101000a900473ffffffffffffffffffffffffffffffffffffffff1673ffffffffffffffffffffffffffffffffffffffff1663e36c26e46040518163ffffffff1660e01b815260040160206040518083038186803b158015611ee257600080fd5b505afa158015611ef6573d6000803e3d6000fd5b505050506040513d601f19601f82011682018060405250810190611f1a9190617c75565b15611f6657611f2c888d8d8d88613d73565b809350819850505060006003811115611f4857611f47618f57565b5b876003811115611f5b57611f5a618f57565b5b14611f6557600080fd5b5b611f71858a8b613d04565b809250819850505060006003811115611f8d57611f8c618f57565b5b876003811115611fa057611f9f618f57565b5b14611faa57600080fd5b8d60098190555080600a8190555082600b8190555081600c819055507f4dec04e750ca11537cabcd8a9eab06494de08da3735bc8871cd41250e190bc048c858386604051611ffb9493929190618ada565b60405180910390a16000601081111561201757612016618f57565b5b9e5050505050505050505050505050505b90565b60008060009054906101000a900460ff1661207b576040517f08c379a0000000000000000000000000000000000000000000000000000000008152600401612072906186c8565b60405180910390fd5b60008060006101000a81548160ff021916908315150217905550600060108111156120a9576120a8618f57565b5b6120b533338686612e91565b14905060016000806101000a81548160ff02191690831515021790555092915050565b600a5481565b6000600660009054906101000a900473ffffffffffffffffffffffffffffffffffffffff1673ffffffffffffffffffffffffffffffffffffffff1663b81688166121266133e8565b600b54600c546008546040518563ffffffff1660e01b815260040161214e9493929190618ada565b60206040518083038186803b15801561216657600080fd5b505afa15801561217a573d6000803e3d6000fd5b505050506040513d601f19601f8201168201806040525081019061219e9190617e5b565b905090565b60008060009054906101000a900460ff166121f3576040517f08c379a00000000000000000000000000000000000000000000000000000000081526004016121ea906186c8565b60405180910390fd5b60008060006101000a81548160ff02191690831515021790555061221933858585614095565b905060016000806101000a81548160ff0219169083151502179055509392505050565b6000600360019054906101000a900473ffffffffffffffffffffffffffffffffffffffff1673ffffffffffffffffffffffffffffffffffffffff163373ffffffffffffffffffffffffffffffffffffffff161461229857600080fd5b6000600460009054906101000a900473ffffffffffffffffffffffffffffffffffffffff16905082600460006101000a81548173ffffffffffffffffffffffffffffffffffffffff021916908373ffffffffffffffffffffffffffffffffffffffff1602179055507fca4f2f25d0898edd99413412fb94012f9e54ec8142f9b093e7720646a95b16a98184604051612331929190618401565b60405180910390a16000601081111561234d5761234c618f57565b5b915050919050565b60008060009054906101000a900460ff166123a5576040517f08c379a000000000000000000000000000000000000000000000000000000000815260040161239c906186c8565b60405180910390fd5b60008060006101000a81548160ff021916908315150217905550600060108111156123d3576123d2618f57565b5b6123db611b73565b1461241b576040517f08c379a0000000000000000000000000000000000000000000000000000000008152600401612412906187c8565b60405180910390fd5b612423610d6f565b905060016000806101000a81548160ff02191690831515021790555090565b6000601160008373ffffffffffffffffffffffffffffffffffffffff1673ffffffffffffffffffffffffffffffffffffffff168152602001908152602001600020600001549050919050565b6000806000806000600f60008773ffffffffffffffffffffffffffffffffffffffff1673ffffffffffffffffffffffffffffffffffffffff16815260200190815260200160002060000154905060008060006124e9896137bd565b80945081925050506000600381111561250557612504618f57565b5b81600381111561251857612517618f57565b5b1461252257600080fd5b61252a612c98565b80935081925050506000600381111561254657612545618f57565b5b81600381111561255957612558618f57565b5b1461256357600080fd5b6000601081111561257757612576618f57565b5b8484849750975097509750505050509193509193565b6000612598826148db565b9050919050565b60006125aa826149c7565b9050919050565b6000601060008473ffffffffffffffffffffffffffffffffffffffff1673ffffffffffffffffffffffffffffffffffffffff16815260200190815260200160002060008373ffffffffffffffffffffffffffffffffffffffff1673ffffffffffffffffffffffffffffffffffffffff16815260200190815260200160002054905092915050565b6000600460009054906101000a900473ffffffffffffffffffffffffffffffffffffffff1673ffffffffffffffffffffffffffffffffffffffff163373ffffffffffffffffffffffffffffffffffffffff161415806126c35750600073ffffffffffffffffffffffffffffffffffffffff163373ffffffffffffffffffffffffffffffffffffffff16145b156126db576126d460016000614a88565b905061289d565b6000600360019054906101000a900473ffffffffffffffffffffffffffffffffffffffff1690506000600460009054906101000a900473ffffffffffffffffffffffffffffffffffffffff169050600460009054906101000a900473ffffffffffffffffffffffffffffffffffffffff16600360016101000a81548173ffffffffffffffffffffffffffffffffffffffff021916908373ffffffffffffffffffffffffffffffffffffffff1602179055506000600460006101000a81548173ffffffffffffffffffffffffffffffffffffffff021916908373ffffffffffffffffffffffffffffffffffffffff1602179055507ff9ffabca9c8276e99321725bcb43fb076a6c66a54b7f21c4e8146d8519b417dc82600360019054906101000a900473ffffffffffffffffffffffffffffffffffffffff16604051612821929190618401565b60405180910390a17fca4f2f25d0898edd99413412fb94012f9e54ec8142f9b093e7720646a95b16a981600460009054906101000a900473ffffffffffffffffffffffffffffffffffffffff1660405161287c929190618401565b60405180910390a16000601081111561289857612897618f57565b5b925050505b90565b6000806128ab611b73565b9050600060108111156128c1576128c0618f57565b5b81146128cc57600080fd5b6128d5836138cd565b915050919050565b600660009054906101000a900473ffffffffffffffffffffffffffffffffffffffff1681565b600080612911858585614b05565b509050809150509392505050565b600360019054906101000a900473ffffffffffffffffffffffffffffffffffffffff1681565b6000600660009054906101000a900473ffffffffffffffffffffffffffffffffffffffff1673ffffffffffffffffffffffffffffffffffffffff166315f2405361298d6133e8565b600b54600c546040518463ffffffff1660e01b81526004016129b193929190618aa3565b60206040518083038186803b1580156129c957600080fd5b505afa1580156129dd573d6000803e3d6000fd5b505050506040513d601f19601f82011682018060405250810190612a019190617e5b565b905090565b600080600080600f60008673ffffffffffffffffffffffffffffffffffffffff1673ffffffffffffffffffffffffffffffffffffffff1681526020019081526020016000209050600081600301549050600060405180602001604052808381525090506000612a7b6009548560020154613c15565b9150506000612a8a8383613c46565b9150506000612aaf6040518060200160405280670de0b6b3a764000081525083614c6e565b915050600086600101549050600060405180602001604052808381525090506000612ada8483614cae565b9150506000612aed826000015185613c15565b91505060008560000151829c509c509c50505050505050505050509193909250565b60008060009054906101000a900460ff16612b5f576040517f08c379a0000000000000000000000000000000000000000000000000000000008152600401612b56906186c8565b60405180910390fd5b60008060006101000a81548160ff0219169083151502179055506000612b83611b73565b905060006010811115612b9957612b98618f57565b5b8114612ba457600080fd5b612bad83614df9565b91505060016000806101000a81548160ff021916908315150217905550919050565b600181565b60008060008054906101000a900460ff16612c24576040517f08c379a0000000000000000000000000000000000000000000000000000000008152600401612c1b906186c8565b60405180910390fd5b60008060006101000a81548160ff0219169083151502179055506000612c48611b73565b905060006010811115612c5e57612c5d618f57565b5b8114612c6957600080fd5b612c74333386614ee2565b925092505060016000806101000a81548160ff021916908315150217905550915091565b6000806000600d5490506000811415612cba5760006007549250925050612e8d565b6000806000612cc76133e8565b9050600660009054906101000a900473ffffffffffffffffffffffffffffffffffffffff1673ffffffffffffffffffffffffffffffffffffffff1663e36c26e46040518163ffffffff1660e01b815260040160206040518083038186803b158015612d3157600080fd5b505afa158015612d45573d6000803e3d6000fd5b505050506040513d601f19601f82011682018060405250810190612d699190617c75565b15612dce57612d7733615363565b809350819450505060006003811115612d9357612d92618f57565b5b836003811115612da657612da5618f57565b5b1415612dbc576000829550955050505050612e8d565b60006007549550955050505050612e8d565b600660009054906101000a900473ffffffffffffffffffffffffffffffffffffffff1673ffffffffffffffffffffffffffffffffffffffff16639dc8bea782600b54600c54600d546040518563ffffffff1660e01b8152600401612e359493929190618ada565b604080518083038186803b158015612e4c57600080fd5b505afa158015612e60573d6000803e3d6000fd5b505050506040513d601f19601f82011682018060405250810190612e849190617dee565b95509550505050505b9091565b600080600560009054906101000a900473ffffffffffffffffffffffffffffffffffffffff1673ffffffffffffffffffffffffffffffffffffffff1663bdcdc258308787876040518563ffffffff1660e01b8152600401612ef594939291906184f9565b602060405180830381600087803b158015612f0f57600080fd5b505af1158015612f23573d6000803e3d6000fd5b505050506040513d601f19601f82011682018060405250810190612f479190617e5b565b905060008114612f5657600080fd5b8373ffffffffffffffffffffffffffffffffffffffff168573ffffffffffffffffffffffffffffffffffffffff161415612f8f57600080fd5b60008573ffffffffffffffffffffffffffffffffffffffff168773ffffffffffffffffffffffffffffffffffffffff161415612fed577fffffffffffffffffffffffffffffffffffffffffffffffffffffffffffffffff905061306d565b601060008773ffffffffffffffffffffffffffffffffffffffff1673ffffffffffffffffffffffffffffffffffffffff16815260200190815260200160002060008873ffffffffffffffffffffffffffffffffffffffff1673ffffffffffffffffffffffffffffffffffffffff1681526020019081526020016000205490505b60008060008061307d8589613c15565b80945081955050506000600381111561309957613098618f57565b5b8460038111156130ac576130ab618f57565b5b146130b657600080fd5b613102600f60008c73ffffffffffffffffffffffffffffffffffffffff1673ffffffffffffffffffffffffffffffffffffffff1681526020019081526020016000206000015489613c15565b80935081955050506000600381111561311e5761311d618f57565b5b84600381111561313157613130618f57565b5b1461313b57600080fd5b613187600f60008b73ffffffffffffffffffffffffffffffffffffffff1673ffffffffffffffffffffffffffffffffffffffff1681526020019081526020016000206000015489613ccc565b8092508195505050600060038111156131a3576131a2618f57565b5b8460038111156131b6576131b5618f57565b5b14156131c157600080fd5b81600f60008c73ffffffffffffffffffffffffffffffffffffffff1673ffffffffffffffffffffffffffffffffffffffff1681526020019081526020016000206000018190555080600f60008b73ffffffffffffffffffffffffffffffffffffffff1673ffffffffffffffffffffffffffffffffffffffff168152602001908152602001600020600001819055507fffffffffffffffffffffffffffffffffffffffffffffffffffffffffffffffff85146132f85782601060008c73ffffffffffffffffffffffffffffffffffffffff1673ffffffffffffffffffffffffffffffffffffffff16815260200190815260200160002060008d73ffffffffffffffffffffffffffffffffffffffff1673ffffffffffffffffffffffffffffffffffffffff168152602001908152602001600020819055505b8873ffffffffffffffffffffffffffffffffffffffff168a73ffffffffffffffffffffffffffffffffffffffff167fddf252ad1be2c89b69c2b068fc378daa952ba7f163c4a11628f55a4df523b3ef8a6040516133559190618a28565b60405180910390a36000601081111561337157613370618f57565b5b9650505050505050949350505050565b6000806000806133918686613c46565b91509150600060038111156133a9576133a8618f57565b5b8260038111156133bc576133bb618f57565b5b146133cf578160009350935050506133e1565b60006133da82615459565b9350935050505b9250929050565b600080601260009054906101000a900473ffffffffffffffffffffffffffffffffffffffff1690508073ffffffffffffffffffffffffffffffffffffffff166370a08231306040518263ffffffff1660e01b8152600401613449919061836b565b60206040518083038186803b15801561346157600080fd5b505afa158015613475573d6000803e3d6000fd5b505050506040513d601f19601f820116820180604052508101906134999190617e5b565b91505090565b60008060009054906101000a900460ff166134ef576040517f08c379a00000000000000000000000000000000000000000000000000000000081526004016134e6906186c8565b60405180910390fd5b60008060006101000a81548160ff0219169083151502179055506000613513611b73565b90506000601081111561352957613528618f57565b5b811461353457600080fd5b60008061353f6138c5565b6009541461354c57600080fd5b613556338661547a565b905080600c546135669190618bac565b9150600c548210156135ad576040517f08c379a00000000000000000000000000000000000000000000000000000000081526004016135a4906187a8565b60405180910390fd5b81600c819055507fa91e67c5ea634cd43a12c5a482724b03de01e85ca68702a53d0c2f45cb7c1dc53382846040516135e793929190618575565b60405180910390a16000601081111561360357613602618f57565b5b935050505060016000806101000a81548160ff021916908315150217905550919050565b600080600360019054906101000a900473ffffffffffffffffffffffffffffffffffffffff1673ffffffffffffffffffffffffffffffffffffffff163373ffffffffffffffffffffffffffffffffffffffff161461368457600080fd5b61368c6138c5565b6009541461369957600080fd5b826136a26133e8565b10156136ad57600080fd5b600c548311156136bc57600080fd5b82600c546136ca9190618c8d565b9050600c54811115613711576040517f08c379a000000000000000000000000000000000000000000000000000000000815260040161370890618848565b60405180910390fd5b80600c81905550613744600360019054906101000a900473ffffffffffffffffffffffffffffffffffffffff1684615739565b7f3bad0c59cf2f06e7314077049f48a93578cd16f5ef92329f1dab1420a99c177e600360019054906101000a900473ffffffffffffffffffffffffffffffffffffffff168483604051613799939291906183ca565b60405180910390a1600060108111156137b5576137b4618f57565b5b915050919050565b600080600080600080601160008873ffffffffffffffffffffffffffffffffffffffff1673ffffffffffffffffffffffffffffffffffffffff16815260200190815260200160002090506000816000015414156138245760008095509550505050506138c0565b6138348160000154600a54615842565b8094508195505050600060038111156138505761384f618f57565b5b84600381111561386357613862618f57565b5b1461386d57600080fd5b61387b83826001015461589a565b80935081955050506000600381111561389757613896618f57565b5b8460038111156138aa576138a9618f57565b5b146138b457600080fd5b60008295509550505050505b915091565b600043905090565b600080600360019054906101000a900473ffffffffffffffffffffffffffffffffffffffff1673ffffffffffffffffffffffffffffffffffffffff163373ffffffffffffffffffffffffffffffffffffffff161461392a57600080fd5b6139326138c5565b6009541461393f57600080fd5b600660009054906101000a900473ffffffffffffffffffffffffffffffffffffffff1690508273ffffffffffffffffffffffffffffffffffffffff16632191f92a6040518163ffffffff1660e01b815260040160206040518083038186803b1580156139aa57600080fd5b505afa1580156139be573d6000803e3d6000fd5b505050506040513d601f19601f820116820180604052508101906139e29190617c75565b6139eb57600080fd5b82600660006101000a81548173ffffffffffffffffffffffffffffffffffffffff021916908373ffffffffffffffffffffffffffffffffffffffff1602179055507fedffc32e068c7c95dfd4bdfd5c4d939a084d6b11c4199eac8436ed234d72f9268184604051613a5d929190618626565b60405180910390a160006010811115613a7957613a78618f57565b5b915050919050565b60008060008054906101000a900460ff16613ad1576040517f08c379a0000000000000000000000000000000000000000000000000000000008152600401613ac8906186c8565b60405180910390fd5b60008060006101000a81548160ff0219169083151502179055506000613af56176d8565b848160e0018181525050613b07611b73565b915060006010811115613b1d57613b1c618f57565b5b8214613b2857600080fd5b613b3233866158cd565b613b3a612c98565b826020018360400182815250826003811115613b5957613b58618f57565b5b6003811115613b6b57613b6a618f57565b5b815250505060006003811115613b8457613b83618f57565b5b81602001516003811115613b9b57613b9a618f57565b5b14613ba557600080fd5b613baf3382615a2e565b613bb93382615a32565b8092508193505050613bcb3382615e5f565b9050613bd73382615fa0565b60006010811115613beb57613bea618f57565b5b8160a0015193509350505060016000806101000a81548160ff021916908315150217905550915091565b600080838311613c365760008385613c2d9190618c8d565b91509150613c3f565b60036000915091505b9250929050565b6000613c506176c5565b600080613c61866000015186615842565b9150915060006003811115613c7957613c78618f57565b5b826003811115613c8c57613c8b618f57565b5b14613cad578160405180602001604052806000815250935093505050613cc5565b60006040518060200160405280838152509350935050505b9250929050565b60008060008385613cdd9190618bac565b9050848110613cf3576000819250925050613cfd565b6002600092509250505b9250929050565b600080600080613d148787613c46565b9150915060006003811115613d2c57613d2b618f57565b5b826003811115613d3f57613d3e618f57565b5b14613d5257816000935093505050613d6b565b613d64613d5e82615459565b86613ccc565b9350935050505b935093915050565b600080600080600660009054906101000a900473ffffffffffffffffffffffffffffffffffffffff1673ffffffffffffffffffffffffffffffffffffffff16636e71e2d88989896040518463ffffffff1660e01b8152600401613dd893929190618aa3565b60206040518083038186803b158015613df057600080fd5b505afa158015613e04573d6000803e3d6000fd5b505050506040513d601f19601f82011682018060405250810190613e289190617e5b565b90506000600660009054906101000a900473ffffffffffffffffffffffffffffffffffffffff1673ffffffffffffffffffffffffffffffffffffffff1663b81688168a8a8a6008546040518563ffffffff1660e01b8152600401613e8f9493929190618ada565b60206040518083038186803b158015613ea757600080fd5b505afa158015613ebb573d6000803e3d6000fd5b505050506040513d601f19601f82011682018060405250810190613edf9190617e5b565b9050600660009054906101000a900473ffffffffffffffffffffffffffffffffffffffff1673ffffffffffffffffffffffffffffffffffffffff166364f42eda8a8a8a6040518463ffffffff1660e01b8152600401613f4093929190618aa3565b60206040518083038186803b158015613f5857600080fd5b505afa158015613f6c573d6000803e3d6000fd5b505050506040513d601f19601f82011682018060405250810190613f909190617c75565b1561408057613fad6040518060200160405280848152508b613381565b809450819650505060006003811115613fc957613fc8618f57565b5b856003811115613fdc57613fdb618f57565b5b14613fe657600080fd5b613ff08382613c15565b80945081965050506000600381111561400c5761400b618f57565b5b85600381111561401f5761401e618f57565b5b1461402957600080fd5b6140426040518060200160405280858152508789613d04565b80955081965050506000600381111561405e5761405d618f57565b5b85600381111561407157614070618f57565b5b1461407b57600080fd5b614088565b600094508693505b5050509550959350505050565b600080600560009054906101000a900473ffffffffffffffffffffffffffffffffffffffff1673ffffffffffffffffffffffffffffffffffffffff1663d02f735130888888886040518663ffffffff1660e01b81526004016140fb9594939291906184a6565b602060405180830381600087803b15801561411557600080fd5b505af1158015614129573d6000803e3d6000fd5b505050506040513d601f19601f8201168201806040525081019061414d9190617e5b565b90506000811461415c57600080fd5b8473ffffffffffffffffffffffffffffffffffffffff168473ffffffffffffffffffffffffffffffffffffffff16141561419557600080fd5b61419d61774f565b60006141eb600f60008873ffffffffffffffffffffffffffffffffffffffff1673ffffffffffffffffffffffffffffffffffffffff1681526020019081526020016000206000015486613c15565b836040018181525081925050506000600381111561420c5761420b618f57565b5b81600381111561421f5761421e618f57565b5b1461422957600080fd5b6142316133e8565b8260c0018181525050600660009054906101000a900473ffffffffffffffffffffffffffffffffffffffff1673ffffffffffffffffffffffffffffffffffffffff1663b81688168360c00151600b54600c546008546040518563ffffffff1660e01b81526004016142a59493929190618ada565b60206040518083038186803b1580156142bd57600080fd5b505afa1580156142d1573d6000803e3d6000fd5b505050506040513d601f19601f820116820180604052508101906142f59190617e5b565b8260e0018181525050600660009054906101000a900473ffffffffffffffffffffffffffffffffffffffff1673ffffffffffffffffffffffffffffffffffffffff16639dc8bea78360c00151600b54600c54600d546040518563ffffffff1660e01b81526004016143699493929190618ada565b604080518083038186803b15801561438057600080fd5b505afa158015614394573d6000803e3d6000fd5b505050506040513d601f19601f820116820180604052508101906143b89190617dee565b9050826020018181525050600660009054906101000a900473ffffffffffffffffffffffffffffffffffffffff1673ffffffffffffffffffffffffffffffffffffffff1663e36c26e46040518163ffffffff1660e01b815260040160206040518083038186803b15801561442b57600080fd5b505afa15801561443f573d6000803e3d6000fd5b505050506040513d601f19601f820116820180604052508101906144639190617c75565b1561447d5761447186615363565b90508260200181815250505b61448b858360200151615842565b90508260000181815250506144ac8260000151670de0b6b3a764000061589a565b9050826000018181525050614507600f60008873ffffffffffffffffffffffffffffffffffffffff1673ffffffffffffffffffffffffffffffffffffffff168152602001908152602001600020600101548360000151613c15565b905082606001818152505061455e600f60008973ffffffffffffffffffffffffffffffffffffffff1673ffffffffffffffffffffffffffffffffffffffff1681526020019081526020016000206000015486613ccc565b836080018181525081925050506000600381111561457f5761457e618f57565b5b81600381111561459257614591618f57565b5b1461459c57600080fd5b6145ec600f60008973ffffffffffffffffffffffffffffffffffffffff1673ffffffffffffffffffffffffffffffffffffffff168152602001908152602001600020600101548360000151613ccc565b90508260a00181815250508160400151600f60008873ffffffffffffffffffffffffffffffffffffffff1673ffffffffffffffffffffffffffffffffffffffff168152602001908152602001600020600001819055508160600151600f60008873ffffffffffffffffffffffffffffffffffffffff1673ffffffffffffffffffffffffffffffffffffffff168152602001908152602001600020600101819055506146956138c5565b600f60008873ffffffffffffffffffffffffffffffffffffffff1673ffffffffffffffffffffffffffffffffffffffff168152602001908152602001600020600201819055508160e00151600f60008873ffffffffffffffffffffffffffffffffffffffff1673ffffffffffffffffffffffffffffffffffffffff168152602001908152602001600020600301819055508160800151600f60008973ffffffffffffffffffffffffffffffffffffffff1673ffffffffffffffffffffffffffffffffffffffff168152602001908152602001600020600001819055508160a00151600f60008973ffffffffffffffffffffffffffffffffffffffff1673ffffffffffffffffffffffffffffffffffffffff168152602001908152602001600020600101819055506147c46138c5565b600f60008973ffffffffffffffffffffffffffffffffffffffff1673ffffffffffffffffffffffffffffffffffffffff168152602001908152602001600020600201819055508160e00151600f60008973ffffffffffffffffffffffffffffffffffffffff1673ffffffffffffffffffffffffffffffffffffffff168152602001908152602001600020600301819055508673ffffffffffffffffffffffffffffffffffffffff168673ffffffffffffffffffffffffffffffffffffffff167fddf252ad1be2c89b69c2b068fc378daa952ba7f163c4a11628f55a4df523b3ef876040516148b29190618a28565b60405180910390a3600060108111156148ce576148cd618f57565b5b9350505050949350505050565b60008060009054906101000a900460ff1661492b576040517f08c379a0000000000000000000000000000000000000000000000000000000008152600401614922906186c8565b60405180910390fd5b60008060006101000a81548160ff02191690831515021790555061494d617794565b828160800181815250506000614961611b73565b90506000601081111561497757614976618f57565b5b811461498257600080fd5b61498c3383616049565b915061499833836162ba565b91506149a433836162cb565b9250505060016000806101000a81548160ff021916908315150217905550919050565b60008060009054906101000a900460ff16614a17576040517f08c379a0000000000000000000000000000000000000000000000000000000008152600401614a0e906186c8565b60405180910390fd5b60008060006101000a81548160ff0219169083151502179055506000614a3b611b73565b905060006010811115614a5157614a50618f57565b5b8114614a5c57600080fd5b614a6633846163f4565b91505060016000806101000a81548160ff021916908315150217905550919050565b60007fb7a0a4a462904856584498909c93e714e712b042b116061c2cffdb4c2080b552836010811115614abe57614abd618f57565b5b836052811115614ad157614ad0618f57565b5b6000604051614ae293929190618a6c565b60405180910390a1826010811115614afd57614afc618f57565b5b905092915050565b60008060008054906101000a900460ff16614b55576040517f08c379a0000000000000000000000000000000000000000000000000000000008152600401614b4c906186c8565b60405180910390fd5b60008060006101000a81548160ff0219169083151502179055506000614b79611b73565b905060006010811115614b8f57614b8e618f57565b5b8114614b9a57600080fd5b8373ffffffffffffffffffffffffffffffffffffffff1663a6afed956040518163ffffffff1660e01b8152600401602060405180830381600087803b158015614be257600080fd5b505af1158015614bf6573d6000803e3d6000fd5b505050506040513d601f19601f82011682018060405250810190614c1a9190617e5b565b905060006010811115614c3057614c2f618f57565b5b8114614c3b57600080fd5b614c4733878787616df4565b925092505060016000806101000a81548160ff021916908315150217905550935093915050565b6000614c786176c5565b600080614c8d86600001518660000151613ccc565b91509150816040518060200160405280838152509350935050509250929050565b6000614cb86176c5565b600080614ccd86600001518660000151615842565b9150915060006003811115614ce557614ce4618f57565b5b826003811115614cf857614cf7618f57565b5b14614d19578160405180602001604052806000815250935093505050614df2565b600080614d3a6002670de0b6b3a7640000614d349190618c02565b84613ccc565b9150915060006003811115614d5257614d51618f57565b5b826003811115614d6557614d64618f57565b5b14614d885781604051806020016040528060008152509550955050505050614df2565b600080614d9d83670de0b6b3a764000061589a565b9150915060006003811115614db557614db4618f57565b5b826003811115614dc857614dc7618f57565b5b14614dd657614dd5618eca565b5b6000604051806020016040528083815250975097505050505050505b9250929050565b6000600360019054906101000a900473ffffffffffffffffffffffffffffffffffffffff1673ffffffffffffffffffffffffffffffffffffffff163373ffffffffffffffffffffffffffffffffffffffff1614614e5557600080fd5b614e5d6138c5565b60095414614e6a57600080fd5b670de0b6b3a7640000821115614e7f57600080fd5b60006008549050826008819055507faaa68312e2ea9d50e16af5068410ab56e1a1fd06037b1a35664812c30f8214608184604051614ebe929190618a43565b60405180910390a160006010811115614eda57614ed9618f57565b5b915050919050565b6000806000600560009054906101000a900473ffffffffffffffffffffffffffffffffffffffff1673ffffffffffffffffffffffffffffffffffffffff166324008a62308888886040518563ffffffff1660e01b8152600401614f4894939291906184f9565b602060405180830381600087803b158015614f6257600080fd5b505af1158015614f76573d6000803e3d6000fd5b505050506040513d601f19601f82011682018060405250810190614f9a9190617e5b565b905060008114614fa957600080fd5b614fb16138c5565b60095414614fbe57600080fd5b614fc66177d5565b601160008773ffffffffffffffffffffffffffffffffffffffff1673ffffffffffffffffffffffffffffffffffffffff1681526020019081526020016000206001015481606001818152505061501b866137bd565b82602001836080018281525082600381111561503a57615039618f57565b5b600381111561504c5761504b618f57565b5b81525050506000600381111561506557615064618f57565b5b8160200151600381111561507c5761507b618f57565b5b1461508657600080fd5b60008514156150a25780608001518160400181815250506150ad565b848160400181815250505b6150bb87826040015161547a565b8160e00181815250506150d681608001518260e00151613c15565b826020018360a001828152508260038111156150f5576150f4618f57565b5b600381111561510757615106618f57565b5b8152505050600060038111156151205761511f618f57565b5b8160200151600381111561513757615136618f57565b5b14615177576040517f08c379a000000000000000000000000000000000000000000000000000000000815260040161516e90618908565b60405180910390fd5b615187600b548260e00151613c15565b826020018360c001828152508260038111156151a6576151a5618f57565b5b60038111156151b8576151b7618f57565b5b8152505050600060038111156151d1576151d0618f57565b5b816020015160038111156151e8576151e7618f57565b5b14615228576040517f08c379a000000000000000000000000000000000000000000000000000000000815260040161521f906186a8565b60405180910390fd5b8060a00151601160008873ffffffffffffffffffffffffffffffffffffffff1673ffffffffffffffffffffffffffffffffffffffff16815260200190815260200160002060000181905550600a54601160008873ffffffffffffffffffffffffffffffffffffffff1673ffffffffffffffffffffffffffffffffffffffff168152602001908152602001600020600101819055508060c00151600b819055508573ffffffffffffffffffffffffffffffffffffffff168773ffffffffffffffffffffffffffffffffffffffff167f1a2a22cb034d26d1854bdc6666a5b91fe25efbbb5dcad3b0355478d6f5c362a18360e001518460a001518560c0015160405161533493929190618aa3565b60405180910390a3600060108111156153505761534f618f57565b5b8160e00151935093505050935093915050565b6000806000600d54141561537f57600060075491509150615454565b6000600f60008573ffffffffffffffffffffffffffffffffffffffff1673ffffffffffffffffffffffffffffffffffffffff16815260200190815260200160002090506000816002015414156153dd57600160009250925050615454565b60006153e885612a06565b50915050600060405180602001604052808381525090506000836001015490506000604051806020016040528083815250905060006154278483614cae565b915050600061543e826000015188600001546173b2565b9150506000816000015198509850505050505050505b915091565b6000670de0b6b3a764000082600001516154739190618c02565b9050919050565b600080601260009054906101000a900473ffffffffffffffffffffffffffffffffffffffff1690506000601260009054906101000a900473ffffffffffffffffffffffffffffffffffffffff1673ffffffffffffffffffffffffffffffffffffffff166370a08231306040518263ffffffff1660e01b81526004016154ff919061836b565b60206040518083038186803b15801561551757600080fd5b505afa15801561552b573d6000803e3d6000fd5b505050506040513d601f19601f8201168201806040525081019061554f9190617e5b565b90508173ffffffffffffffffffffffffffffffffffffffff166323b872dd8630876040518463ffffffff1660e01b815260040161558e9392919061853e565b600060405180830381600087803b1580156155a857600080fd5b505af11580156155bc573d6000803e3d6000fd5b5050505060003d600081146155d857602081146155e257600080fd5b60001991506155ee565b60206000803e60005191505b508061562f576040517f08c379a0000000000000000000000000000000000000000000000000000000008152600401615626906189e8565b60405180910390fd5b6000601260009054906101000a900473ffffffffffffffffffffffffffffffffffffffff1673ffffffffffffffffffffffffffffffffffffffff166370a08231306040518263ffffffff1660e01b815260040161568c919061836b565b60206040518083038186803b1580156156a457600080fd5b505afa1580156156b8573d6000803e3d6000fd5b505050506040513d601f19601f820116820180604052508101906156dc9190617e5b565b905082811015615721576040517f08c379a0000000000000000000000000000000000000000000000000000000008152600401615718906186e8565b60405180910390fd5b828161572d9190618c8d565b94505050505092915050565b6000601260009054906101000a900473ffffffffffffffffffffffffffffffffffffffff1690508073ffffffffffffffffffffffffffffffffffffffff1663a9059cbb84846040518363ffffffff1660e01b815260040161579b9291906183a1565b600060405180830381600087803b1580156157b557600080fd5b505af11580156157c9573d6000803e3d6000fd5b5050505060003d600081146157e557602081146157ef57600080fd5b60001991506157fb565b60206000803e60005191505b508061583c576040517f08c379a000000000000000000000000000000000000000000000000000000000815260040161583390618928565b60405180910390fd5b50505050565b600080600084141561585a5760008091509150615893565b600083856158689190618c33565b90508385826158779190618c02565b1461588a57600260009250925050615893565b60008192509250505b9250929050565b60008060008314156158b35760016000915091506158c6565b600083856158c19190618c02565b915091505b9250929050565b6000600560009054906101000a900473ffffffffffffffffffffffffffffffffffffffff1673ffffffffffffffffffffffffffffffffffffffff16634ef4c3e13085856040518463ffffffff1660e01b815260040161592e9392919061853e565b602060405180830381600087803b15801561594857600080fd5b505af115801561595c573d6000803e3d6000fd5b505050506040513d601f19601f820116820180604052508101906159809190617e5b565b90506000811461598f57600080fd5b6159976138c5565b600954146159a457600080fd5b6000601160008573ffffffffffffffffffffffffffffffffffffffff1673ffffffffffffffffffffffffffffffffffffffff1681526020019081526020016000206000015414615a29576040517f08c379a0000000000000000000000000000000000000000000000000000000008152600401615a20906189c8565b60405180910390fd5b505050565b5050565b6000615a3c6176d8565b615a4a848460e0015161547a565b8360c0018181525050615a738360c0015160405180602001604052808660400151815250617499565b846020018560600182815250826003811115615a9257615a91618f57565b5b6003811115615aa457615aa3618f57565b5b815250505060006003811115615abd57615abc618f57565b5b83602001516003811115615ad457615ad3618f57565b5b14615b14576040517f08c379a0000000000000000000000000000000000000000000000000000000008152600401615b0b90618868565b60405180910390fd5b615b24600d548460600151613ccc565b846020018560800182815250826003811115615b4357615b42618f57565b5b6003811115615b5557615b54618f57565b5b815250505060006003811115615b6e57615b6d618f57565b5b83602001516003811115615b8557615b84618f57565b5b14615bc5576040517f08c379a0000000000000000000000000000000000000000000000000000000008152600401615bbc906187e8565b60405180910390fd5b615c15600f60008673ffffffffffffffffffffffffffffffffffffffff1673ffffffffffffffffffffffffffffffffffffffff168152602001908152602001600020600001548460600151613ccc565b846020018560a00182815250826003811115615c3457615c33618f57565b5b6003811115615c4657615c45618f57565b5b815250505060006003811115615c5f57615c5e618f57565b5b83602001516003811115615c7657615c75618f57565b5b14615cb6576040517f08c379a0000000000000000000000000000000000000000000000000000000008152600401615cad90618768565b60405180910390fd5b600660009054906101000a900473ffffffffffffffffffffffffffffffffffffffff1673ffffffffffffffffffffffffffffffffffffffff1663b8168816615cfc6133e8565b600b54600c546008546040518563ffffffff1660e01b8152600401615d249493929190618ada565b60206040518083038186803b158015615d3c57600080fd5b505afa158015615d50573d6000803e3d6000fd5b505050506040513d601f19601f82011682018060405250810190615d749190617e5b565b836101200181815250508373ffffffffffffffffffffffffffffffffffffffff167f4c209b5fc8ad50758f13e2e1088ba56a560dff690a1c6fef26394f4c03821c4f8460c001518560600151604051615dce929190618a43565b60405180910390a28373ffffffffffffffffffffffffffffffffffffffff163073ffffffffffffffffffffffffffffffffffffffff167fddf252ad1be2c89b69c2b068fc378daa952ba7f163c4a11628f55a4df523b3ef8560600151604051615e379190618a28565b60405180910390a360006010811115615e5357615e52618f57565b5b83915091509250929050565b615e676176d8565b615e6f6176c5565b6000600f60008673ffffffffffffffffffffffffffffffffffffffff1673ffffffffffffffffffffffffffffffffffffffff168152602001908152602001600020600001541115615f96576000600f60008673ffffffffffffffffffffffffffffffffffffffff1673ffffffffffffffffffffffffffffffffffffffff1681526020019081526020016000206000015490506000615f2d60405180602001604052808481525060405180602001604052808860400151815250614cae565b809450819250505060006003811115615f4957615f48618f57565b5b816003811115615f5c57615f5b618f57565b5b14615f6657600080fd5b826000015185610100018181525050615f888561010001518660e00151613ccc565b90508560e001818152505050505b8291505092915050565b8060800151600d8190555060405180608001604052808260a0015181526020018260e0015181526020016009548152602001826101200151815250600f60008473ffffffffffffffffffffffffffffffffffffffff1673ffffffffffffffffffffffffffffffffffffffff168152602001908152602001600020600082015181600001556020820151816001015560408201518160020155606082015181600301559050505050565b616051617794565b6000600560009054906101000a900473ffffffffffffffffffffffffffffffffffffffff1673ffffffffffffffffffffffffffffffffffffffff1663da3d454c308686608001516040518463ffffffff1660e01b81526004016160b69392919061842a565b602060405180830381600087803b1580156160d057600080fd5b505af11580156160e4573d6000803e3d6000fd5b505050506040513d601f19601f820116820180604052508101906161089190617e5b565b90506000811461611757600080fd5b61611f6138c5565b6009541461612c57600080fd5b82608001516161396133e8565b101561614457600080fd5b61614d846137bd565b84600001856020018281525082600381111561616c5761616b618f57565b5b600381111561617e5761617d618f57565b5b81525050506000600381111561619757616196618f57565b5b836000015160038111156161ae576161ad618f57565b5b146161b857600080fd5b6161ca83602001518460800151613ccc565b8460000185604001828152508260038111156161e9576161e8618f57565b5b60038111156161fb576161fa618f57565b5b81525050506000600381111561621457616213618f57565b5b8360000151600381111561622b5761622a618f57565b5b1461623557600080fd5b616245600b548460800151613ccc565b84600001856060018281525082600381111561626457616263618f57565b5b600381111561627657616275618f57565b5b81525050506000600381111561628f5761628e618f57565b5b836000015160038111156162a6576162a5618f57565b5b146162b057600080fd5b8291505092915050565b6162c2617794565b81905092915050565b60006162db838360800151615739565b8160400151601160008573ffffffffffffffffffffffffffffffffffffffff1673ffffffffffffffffffffffffffffffffffffffff16815260200190815260200160002060000181905550600a54601160008573ffffffffffffffffffffffffffffffffffffffff1673ffffffffffffffffffffffffffffffffffffffff168152602001908152602001600020600101819055508160600151600b819055508273ffffffffffffffffffffffffffffffffffffffff167f13ed6866d4e1ee6da46f845c46d7e54120883d75c5ea9a2dacc1c4ca8984ab808360800151846040015185606001516040516163d093929190618aa3565b60405180910390a2600060108111156163ec576163eb618f57565b5b905092915050565b60006163fe61783e565b6000600f60008673ffffffffffffffffffffffffffffffffffffffff1673ffffffffffffffffffffffffffffffffffffffff1681526020019081526020016000209050616449612c98565b83602001846040018281525082600381111561646857616467618f57565b5b600381111561647a57616479618f57565b5b81525050506000600381111561649357616492618f57565b5b826020015160038111156164aa576164a9618f57565b5b146164b457600080fd5b600080600080600660009054906101000a900473ffffffffffffffffffffffffffffffffffffffff1673ffffffffffffffffffffffffffffffffffffffff1663e36c26e46040518163ffffffff1660e01b815260040160206040518083038186803b15801561652257600080fd5b505afa158015616536573d6000803e3d6000fd5b505050506040513d601f19601f8201168201806040525081019061655a9190617c75565b9050801561657c578460010154915061657289612a06565b9091509050809450505b600660009054906101000a900473ffffffffffffffffffffffffffffffffffffffff1673ffffffffffffffffffffffffffffffffffffffff1663b81688166165c26133e8565b600b54600c546008546040518563ffffffff1660e01b81526004016165ea9493929190618ada565b60206040518083038186803b15801561660257600080fd5b505afa158015616616573d6000803e3d6000fd5b505050506040513d601f19601f8201168201806040525081019061663a9190617e5b565b85600301819055508080156167065750600660009054906101000a900473ffffffffffffffffffffffffffffffffffffffff1673ffffffffffffffffffffffffffffffffffffffff166364f42eda6166906133e8565b600b54600c546040518463ffffffff1660e01b81526004016166b493929190618aa3565b60206040518083038186803b1580156166cc57600080fd5b505afa1580156166e0573d6000803e3d6000fd5b505050506040513d601f19601f820116820180604052508101906167049190617c75565b155b156168e0576000600660009054906101000a900473ffffffffffffffffffffffffffffffffffffffff1673ffffffffffffffffffffffffffffffffffffffff166315f240536167536133e8565b600b54600c546040518463ffffffff1660e01b815260040161677793929190618aa3565b60206040518083038186803b15801561678f57600080fd5b505afa1580156167a3573d6000803e3d6000fd5b505050506040513d601f19601f820116820180604052508101906167c79190617e5b565b90506000600660009054906101000a900473ffffffffffffffffffffffffffffffffffffffff1673ffffffffffffffffffffffffffffffffffffffff16636e71e2d86168116133e8565b600b54600c546040518463ffffffff1660e01b815260040161683593929190618aa3565b60206040518083038186803b15801561684d57600080fd5b505afa158015616861573d6000803e3d6000fd5b505050506040513d601f19601f820116820180604052508101906168859190617e5b565b905060006168a160405180602001604052808581525083613381565b9150506168b2886003015482613c15565b90508096505060006168c8878a600301546173b2565b9150506168d58189613381565b905080975050505050505b60008814156169035784600101548660800181815250508460010154975061690e565b878660800181815250505b801561695357600061692887608001518760000154617500565b915050600061693b8260000151856173b2565b91505080600001518860600181815250505050616a06565b61696f8860405180602001604052808960400151815250617499565b87602001886060018281525082600381111561698e5761698d618f57565b5b60038111156169a05761699f618f57565b5b8152505050600060038111156169b9576169b8618f57565b5b866020015160038111156169d0576169cf618f57565b5b14616a05576169f86009602a886020015160038111156169f3576169f2618f57565b5b61753b565b9650505050505050616dee565b5b6000600560009054906101000a900473ffffffffffffffffffffffffffffffffffffffff1673ffffffffffffffffffffffffffffffffffffffff1663eabe7d91308c8a606001516040518463ffffffff1660e01b8152600401616a6b9392919061842a565b602060405180830381600087803b158015616a8557600080fd5b505af1158015616a99573d6000803e3d6000fd5b505050506040513d601f19601f82011682018060405250810190616abd9190617e5b565b905060008114616acc57600080fd5b616ad46138c5565b60095414616ae157600080fd5b616af1600d548860600151613c15565b886020018960a00182815250826003811115616b1057616b0f618f57565b5b6003811115616b2257616b21618f57565b5b815250505060006003811115616b3b57616b3a618f57565b5b87602001516003811115616b5257616b51618f57565b5b14616b5c57600080fd5b616b68600e5485613c15565b90508760e0018181525050616b8586600001548860600151613c15565b886020018960c00182815250826003811115616ba457616ba3618f57565b5b6003811115616bb657616bb5618f57565b5b815250505060006003811115616bcf57616bce618f57565b5b87602001516003811115616be657616be5618f57565b5b14616bf057600080fd5b6000616bfa6133e8565b90508215616c06574790505b8760800151811015616c1757600080fd5b616c258b8960800151615739565b8760a00151600d819055508760e00151600e819055508760c0015187600001819055506009548760020181905550616c6587600101548960800151613c15565b90508760010160008291905055503073ffffffffffffffffffffffffffffffffffffffff168b73ffffffffffffffffffffffffffffffffffffffff167fddf252ad1be2c89b69c2b068fc378daa952ba7f163c4a11628f55a4df523b3ef8a60600151604051616cd49190618a28565b60405180910390a38a73ffffffffffffffffffffffffffffffffffffffff167fe5b754fb1abb7f01b499791d0b820ae3b6af3424ac1c59768edb53f4ec31a92989608001518a60600151604051616d2c929190618a43565b60405180910390a2600560009054906101000a900473ffffffffffffffffffffffffffffffffffffffff1673ffffffffffffffffffffffffffffffffffffffff166351dff989308d8b608001518c606001516040518563ffffffff1660e01b8152600401616d9d9493929190618461565b600060405180830381600087803b158015616db757600080fd5b505af1158015616dcb573d6000803e3d6000fd5b5050505060006010811115616de357616de2618f57565b5b985050505050505050505b92915050565b6000806000600560009054906101000a900473ffffffffffffffffffffffffffffffffffffffff1673ffffffffffffffffffffffffffffffffffffffff16635fc7e71e30868a8a8a6040518663ffffffff1660e01b8152600401616e5c9594939291906184a6565b602060405180830381600087803b158015616e7657600080fd5b505af1158015616e8a573d6000803e3d6000fd5b505050506040513d601f19601f82011682018060405250810190616eae9190617e5b565b905060008114616ebd57600080fd5b616ec56138c5565b60095414616ed257600080fd5b616eda6138c5565b8473ffffffffffffffffffffffffffffffffffffffff16636c540baf6040518163ffffffff1660e01b815260040160206040518083038186803b158015616f2057600080fd5b505afa158015616f34573d6000803e3d6000fd5b505050506040513d601f19601f82011682018060405250810190616f589190617e5b565b14616f6257600080fd5b8673ffffffffffffffffffffffffffffffffffffffff168673ffffffffffffffffffffffffffffffffffffffff161415616f9b57600080fd5b6000851415616fa957600080fd5b7fffffffffffffffffffffffffffffffffffffffffffffffffffffffffffffffff851415616fd657600080fd5b600080616fe4898989614ee2565b9150915060006010811115616ffc57616ffb618f57565b5b821461700757600080fd5b600080600560009054906101000a900473ffffffffffffffffffffffffffffffffffffffff1673ffffffffffffffffffffffffffffffffffffffff1663c488847b308a866040518463ffffffff1660e01b81526004016170699392919061853e565b604080518083038186803b15801561708057600080fd5b505afa158015617094573d6000803e3d6000fd5b505050506040513d601f19601f820116820180604052508101906170b89190617e88565b91509150600060108111156170d0576170cf618f57565b5b8214617111576040517f08c379a0000000000000000000000000000000000000000000000000000000008152600401617108906189a8565b60405180910390fd5b808873ffffffffffffffffffffffffffffffffffffffff166370a082318c6040518263ffffffff1660e01b815260040161714b919061836b565b60206040518083038186803b15801561716357600080fd5b505afa158015617177573d6000803e3d6000fd5b505050506040513d601f19601f8201168201806040525081019061719b9190617e5b565b10156171dc576040517f08c379a00000000000000000000000000000000000000000000000000000000081526004016171d390618788565b60405180910390fd5b60003073ffffffffffffffffffffffffffffffffffffffff168973ffffffffffffffffffffffffffffffffffffffff1614156172255761721e308d8d85614095565b90506172b7565b8873ffffffffffffffffffffffffffffffffffffffff1663b2a02ff18d8d856040518463ffffffff1660e01b81526004016172629392919061853e565b602060405180830381600087803b15801561727c57600080fd5b505af1158015617290573d6000803e3d6000fd5b505050506040513d601f19601f820116820180604052508101906172b49190617e5b565b90505b600060108111156172cb576172ca618f57565b5b811461730c576040517f08c379a000000000000000000000000000000000000000000000000000000000815260040161730390618808565b60405180910390fd5b8873ffffffffffffffffffffffffffffffffffffffff168b73ffffffffffffffffffffffffffffffffffffffff168d73ffffffffffffffffffffffffffffffffffffffff167f298637f684da70674f26509b10f07ec2fbc77a335ab1e7d6215a4b2484d8bb528786604051617382929190618a43565b60405180910390a46000601081111561739e5761739d618f57565b5b849750975050505050505094509492505050565b60006173bc6176c5565b6000806173d186670de0b6b3a7640000615842565b91509150600060038111156173e9576173e8618f57565b5b8260038111156173fc576173fb618f57565b5b1461741d578160405180602001604052806000815250935093505050617492565b60008061742a838861589a565b915091506000600381111561744257617441618f57565b5b82600381111561745557617454618f57565b5b146174785781604051806020016040528060008152509550955050505050617492565b600060405180602001604052808381525095509550505050505b9250929050565b6000806000806174a986866175b8565b91509150600060038111156174c1576174c0618f57565b5b8260038111156174d4576174d3618f57565b5b146174e7578160009350935050506174f9565b60006174f282615459565b9350935050505b9250929050565b600061750a6176c5565b617530604051806020016040528086815250604051806020016040528086815250614cae565b915091509250929050565b60007fb7a0a4a462904856584498909c93e714e712b042b116061c2cffdb4c2080b55284601081111561757157617570618f57565b5b84605281111561758457617583618f57565b5b8460405161759493929190618aa3565b60405180910390a18360108111156175af576175ae618f57565b5b90509392505050565b60006175c26176c5565b6000806175d7670de0b6b3a764000087615842565b91509150600060038111156175ef576175ee618f57565b5b82600381111561760257617601618f57565b5b14617623578160405180602001604052806000815250935093505050617638565b6176318186600001516173b2565b9350935050505b9250929050565b82805461764b90618e67565b90600052602060002090601f01602090048101928261766d57600085556176b4565b82601f1061768657805160ff19168380011785556176b4565b828001600101855582156176b4579182015b828111156176b3578251825591602001919060010190617698565b5b5090506176c191906178a7565b5090565b6040518060200160405280600081525090565b604051806101400160405280600060108111156176f8576176f7618f57565b5b81526020016000600381111561771157617710618f57565b5b815260200160008152602001600081526020016000815260200160008152602001600081526020016000815260200160008152602001600081525090565b60405180610100016040528060008152602001600081526020016000815260200160008152602001600081526020016000815260200160008152602001600081525090565b6040518060a00160405280600060038111156177b3576177b2618f57565b5b8152602001600081526020016000815260200160008152602001600081525090565b604051806101000160405280600060108111156177f5576177f4618f57565b5b81526020016000600381111561780e5761780d618f57565b5b81526020016000815260200160008152602001600081526020016000815260200160008152602001600081525090565b6040518061010001604052806000601081111561785e5761785d618f57565b5b81526020016000600381111561787757617876618f57565b5b81526020016000815260200160008152602001600081526020016000815260200160008152602001600081525090565b5b808211156178c05760008160009055506001016178a8565b5090565b60006178d76178d284618b5f565b618b3a565b9050828152602081018484840111156178f3576178f2618fe9565b5b6178fe848285618e25565b509392505050565b60008135905061791581619499565b92915050565b60008135905061792a816194b0565b92915050565b60008151905061793f816194c7565b92915050565b600081359050617954816194de565b92915050565b600081359050617969816194f5565b92915050565b60008135905061797e8161950c565b92915050565b60008135905061799381619523565b92915050565b6000815190506179a88161953a565b92915050565b600082601f8301126179c3576179c2618fe4565b5b81356179d38482602086016178c4565b91505092915050565b6000813590506179eb8161954a565b92915050565b600081519050617a008161954a565b92915050565b600081359050617a1581619561565b92915050565b600060208284031215617a3157617a30618ff3565b5b6000617a3f84828501617906565b91505092915050565b600060208284031215617a5e57617a5d618ff3565b5b6000617a6c8482850161791b565b91505092915050565b60008060408385031215617a8c57617a8b618ff3565b5b6000617a9a85828601617906565b9250506020617aab85828601617906565b9150509250929050565b600080600060608486031215617ace57617acd618ff3565b5b6000617adc86828701617906565b9350506020617aed86828701617906565b9250506040617afe868287016179dc565b9150509250925092565b600080600080600080600060e0888a031215617b2757617b26618ff3565b5b6000617b358a828b01617906565b9750506020617b468a828b0161795a565b9650506040617b578a828b01617984565b9550506060617b688a828b016179dc565b945050608088013567ffffffffffffffff811115617b8957617b88618fee565b5b617b958a828b016179ae565b93505060a088013567ffffffffffffffff811115617bb657617bb5618fee565b5b617bc28a828b016179ae565b92505060c0617bd38a828b01617a06565b91505092959891949750929550565b60008060408385031215617bf957617bf8618ff3565b5b6000617c0785828601617906565b9250506020617c18858286016179dc565b9150509250929050565b600080600060608486031215617c3b57617c3a618ff3565b5b6000617c4986828701617906565b9350506020617c5a868287016179dc565b9250506040617c6b86828701617945565b9150509250925092565b600060208284031215617c8b57617c8a618ff3565b5b6000617c9984828501617930565b91505092915050565b600060208284031215617cb857617cb7618ff3565b5b6000617cc68482850161795a565b91505092915050565b60008060008060008060c08789031215617cec57617ceb618ff3565b5b6000617cfa89828a0161795a565b9650506020617d0b89828a01617984565b9550506040617d1c89828a016179dc565b945050606087013567ffffffffffffffff811115617d3d57617d3c618fee565b5b617d4989828a016179ae565b935050608087013567ffffffffffffffff811115617d6a57617d69618fee565b5b617d7689828a016179ae565b92505060a0617d8789828a01617a06565b9150509295509295509295565b600060208284031215617daa57617da9618ff3565b5b6000617db88482850161796f565b91505092915050565b600060208284031215617dd757617dd6618ff3565b5b6000617de584828501617984565b91505092915050565b60008060408385031215617e0557617e04618ff3565b5b6000617e1385828601617999565b9250506020617e24858286016179f1565b9150509250929050565b600060208284031215617e4457617e43618ff3565b5b6000617e52848285016179dc565b91505092915050565b600060208284031215617e7157617e70618ff3565b5b6000617e7f848285016179f1565b91505092915050565b60008060408385031215617e9f57617e9e618ff3565b5b6000617ead858286016179f1565b9250506020617ebe858286016179f1565b9150509250929050565b617ed181618d83565b82525050565b617ee081618cd3565b82525050565b617eef81618cc1565b82525050565b617efe81618ce5565b82525050565b617f0d81618d95565b82525050565b617f1c81618db9565b82525050565b617f2b81618ddd565b82525050565b617f3a81618def565b82525050565b6000617f4b82618b90565b617f558185618b9b565b9350617f65818560208601618e34565b617f6e81618ff8565b840191505092915050565b6000617f86600283618b9b565b9150617f9182619009565b602082019050919050565b6000617fa9600283618b9b565b9150617fb482619032565b602082019050919050565b6000617fcc600483618b9b565b9150617fd78261905b565b602082019050919050565b6000617fef600183618b9b565b9150617ffa82619084565b602082019050919050565b6000618012600283618b9b565b915061801d826190ad565b602082019050919050565b6000618035600183618b9b565b9150618040826190d6565b602082019050919050565b6000618058600283618b9b565b9150618063826190ff565b602082019050919050565b600061807b600283618b9b565b915061808682619128565b602082019050919050565b600061809e600283618b9b565b91506180a982619151565b602082019050919050565b60006180c1600283618b9b565b91506180cc8261917a565b602082019050919050565b60006180e4600283618b9b565b91506180ef826191a3565b602082019050919050565b6000618107600283618b9b565b9150618112826191cc565b602082019050919050565b600061812a600283618b9b565b9150618135826191f5565b602082019050919050565b600061814d600283618b9b565b91506181588261921e565b602082019050919050565b6000618170600283618b9b565b915061817b82619247565b602082019050919050565b6000618193600283618b9b565b915061819e82619270565b602082019050919050565b60006181b6600283618b9b565b91506181c182619299565b602082019050919050565b60006181d9600283618b9b565b91506181e4826192c2565b602082019050919050565b60006181fc600183618b9b565b9150618207826192eb565b602082019050919050565b600061821f600283618b9b565b915061822a82619314565b602082019050919050565b6000618242600483618b9b565b915061824d8261933d565b602082019050919050565b6000618265600183618b9b565b915061827082619366565b602082019050919050565b6000618288600283618b9b565b91506182938261938f565b602082019050919050565b60006182ab600183618b9b565b91506182b6826193b8565b602082019050919050565b60006182ce600283618b9b565b91506182d9826193e1565b602082019050919050565b60006182f1600283618b9b565b91506182fc8261940a565b602082019050919050565b6000618314600483618b9b565b915061831f82619433565b602082019050919050565b6000618337600483618b9b565b91506183428261945c565b602082019050919050565b61835681618d6c565b82525050565b61836581618d76565b82525050565b60006020820190506183806000830184617ee6565b92915050565b600060208201905061839b6000830184617ed7565b92915050565b60006040820190506183b66000830185617ec8565b6183c3602083018461834d565b9392505050565b60006060820190506183df6000830186617ec8565b6183ec602083018561834d565b6183f9604083018461834d565b949350505050565b60006040820190506184166000830185617ee6565b6184236020830184617ec8565b9392505050565b600060608201905061843f6000830186617ee6565b61844c6020830185617ec8565b618459604083018461834d565b949350505050565b60006080820190506184766000830187617ee6565b6184836020830186617ec8565b618490604083018561834d565b61849d606083018461834d565b95945050505050565b600060a0820190506184bb6000830188617ee6565b6184c86020830187617ee6565b6184d56040830186617ee6565b6184e26060830185617ee6565b6184ef608083018461834d565b9695505050505050565b600060808201905061850e6000830187617ee6565b61851b6020830186617ee6565b6185286040830185617ee6565b618535606083018461834d565b95945050505050565b60006060820190506185536000830186617ee6565b6185606020830185617ee6565b61856d604083018461834d565b949350505050565b600060608201905061858a6000830186617ee6565b618597602083018561834d565b6185a4604083018461834d565b949350505050565b60006020820190506185c16000830184617ef5565b92915050565b60006020820190506185dc6000830184617f04565b92915050565b60006040820190506185f76000830185617f04565b6186046020830184617f04565b9392505050565b60006020820190506186206000830184617f13565b92915050565b600060408201905061863b6000830185617f13565b6186486020830184617f13565b9392505050565b60006060820190506186646000830186617f22565b618671602083018561834d565b61867e604083018461834d565b949350505050565b600060208201905081810360008301526186a08184617f40565b905092915050565b600060208201905081810360008301526186c181617f79565b9050919050565b600060208201905081810360008301526186e181617f9c565b9050919050565b6000602082019050818103600083015261870181617fbf565b9050919050565b6000602082019050818103600083015261872181617fe2565b9050919050565b6000602082019050818103600083015261874181618005565b9050919050565b6000602082019050818103600083015261876181618028565b9050919050565b600060208201905081810360008301526187818161804b565b9050919050565b600060208201905081810360008301526187a18161806e565b9050919050565b600060208201905081810360008301526187c181618091565b9050919050565b600060208201905081810360008301526187e1816180b4565b9050919050565b60006020820190508181036000830152618801816180d7565b9050919050565b60006020820190508181036000830152618821816180fa565b9050919050565b600060208201905081810360008301526188418161811d565b9050919050565b6000602082019050818103600083015261886181618140565b9050919050565b6000602082019050818103600083015261888181618163565b9050919050565b600060208201905081810360008301526188a181618186565b9050919050565b600060208201905081810360008301526188c1816181a9565b9050919050565b600060208201905081810360008301526188e1816181cc565b9050919050565b60006020820190508181036000830152618901816181ef565b9050919050565b6000602082019050818103600083015261892181618212565b9050919050565b6000602082019050818103600083015261894181618235565b9050919050565b6000602082019050818103600083015261896181618258565b9050919050565b600060208201905081810360008301526189818161827b565b9050919050565b600060208201905081810360008301526189a18161829e565b9050919050565b600060208201905081810360008301526189c1816182c1565b9050919050565b600060208201905081810360008301526189e1816182e4565b9050919050565b60006020820190508181036000830152618a0181618307565b9050919050565b60006020820190508181036000830152618a218161832a565b9050919050565b6000602082019050618a3d600083018461834d565b92915050565b6000604082019050618a58600083018561834d565b618a65602083018461834d565b9392505050565b6000606082019050618a81600083018661834d565b618a8e602083018561834d565b618a9b6040830184617f31565b949350505050565b6000606082019050618ab8600083018661834d565b618ac5602083018561834d565b618ad2604083018461834d565b949350505050565b6000608082019050618aef600083018761834d565b618afc602083018661834d565b618b09604083018561834d565b618b16606083018461834d565b95945050505050565b6000602082019050618b34600083018461835c565b92915050565b6000618b44618b55565b9050618b508282618e99565b919050565b6000604051905090565b600067ffffffffffffffff821115618b7a57618b79618fb5565b5b618b8382618ff8565b9050602081019050919050565b600081519050919050565b600082825260208201905092915050565b6000618bb782618d6c565b9150618bc283618d6c565b9250827fffffffffffffffffffffffffffffffffffffffffffffffffffffffffffffffff03821115618bf757618bf6618ef9565b5b828201905092915050565b6000618c0d82618d6c565b9150618c1883618d6c565b925082618c2857618c27618f28565b5b828204905092915050565b6000618c3e82618d6c565b9150618c4983618d6c565b9250817fffffffffffffffffffffffffffffffffffffffffffffffffffffffffffffffff0483118215151615618c8257618c81618ef9565b5b828202905092915050565b6000618c9882618d6c565b9150618ca383618d6c565b925082821015618cb657618cb5618ef9565b5b828203905092915050565b6000618ccc82618d4c565b9050919050565b6000618cde82618d4c565b9050919050565b60008115159050919050565b6000618cfc82618cc1565b9050919050565b6000618d0e82618cc1565b9050919050565b6000618d2082618cc1565b9050919050565b6000618d3282618cc1565b9050919050565b6000819050618d4782619485565b919050565b600073ffffffffffffffffffffffffffffffffffffffff82169050919050565b6000819050919050565b600060ff82169050919050565b6000618d8e82618e01565b9050919050565b6000618da082618da7565b9050919050565b6000618db282618d4c565b9050919050565b6000618dc482618dcb565b9050919050565b6000618dd682618d4c565b9050919050565b6000618de882618d39565b9050919050565b6000618dfa82618d6c565b9050919050565b6000618e0c82618e13565b9050919050565b6000618e1e82618d4c565b9050919050565b82818337600083830152505050565b60005b83811015618e52578082015181840152602081019050618e37565b83811115618e61576000848401525b50505050565b60006002820490506001821680618e7f57607f821691505b60208210811415618e9357618e92618f86565b5b50919050565b618ea282618ff8565b810181811067ffffffffffffffff82111715618ec157618ec0618fb5565b5b80604052505050565b7f4e487b7100000000000000000000000000000000000000000000000000000000600052600160045260246000fd5b7f4e487b7100000000000000000000000000000000000000000000000000000000600052601160045260246000fd5b7f4e487b7100000000000000000000000000000000000000000000000000000000600052601260045260246000fd5b7f4e487b7100000000000000000000000000000000000000000000000000000000600052602160045260246000fd5b7f4e487b7100000000000000000000000000000000000000000000000000000000600052602260045260246000fd5b7f4e487b7100000000000000000000000000000000000000000000000000000000600052604160045260246000fd5b600080fd5b600080fd5b600080fd5b600080fd5b6000601f19601f8301169050919050565b7f3534000000000000000000000000000000000000000000000000000000000000600082015250565b7f3833000000000000000000000000000000000000000000000000000000000000600082015250565b7f4543303300000000000000000000000000000000000000000000000000000000600082015250565b7f3400000000000000000000000000000000000000000000000000000000000000600082015250565b7f3135000000000000000000000000000000000000000000000000000000000000600082015250565b7f3300000000000000000000000000000000000000000000000000000000000000600082015250565b7f3336000000000000000000000000000000000000000000000000000000000000600082015250565b7f3633000000000000000000000000000000000000000000000000000000000000600082015250565b7f3734000000000000000000000000000000000000000000000000000000000000600082015250565b7f3134000000000000000000000000000000000000000000000000000000000000600082015250565b7f3335000000000000000000000000000000000000000000000000000000000000600082015250565b7f3634000000000000000000000000000000000000000000000000000000000000600082015250565b7f3230000000000000000000000000000000000000000000000000000000000000600082015250565b7f3830000000000000000000000000000000000000000000000000000000000000600082015250565b7f3334000000000000000000000000000000000000000000000000000000000000600082015250565b7f3131000000000000000000000000000000000000000000000000000000000000600082015250565b7f3138000000000000000000000000000000000000000000000000000000000000600082015250565b7f3139000000000000000000000000000000000000000000000000000000000000600082015250565b7f3200000000000000000000000000000000000000000000000000000000000000600082015250565b7f3533000000000000000000000000000000000000000000000000000000000000600082015250565b7f4345303100000000000000000000000000000000000000000000000000000000600082015250565b7f3100000000000000000000000000000000000000000000000000000000000000600082015250565b7f3730000000000000000000000000000000000000000000000000000000000000600082015250565b7f3500000000000000000000000000000000000000000000000000000000000000600082015250565b7f3632000000000000000000000000000000000000000000000000000000000000600082015250565b7f3333000000000000000000000000000000000000000000000000000000000000600082015250565b7f4543303200000000000000000000000000000000000000000000000000000000600082015250565b7f4543303100000000000000000000000000000000000000000000000000000000600082015250565b6004811061949657619495618f57565b5b50565b6194a281618cc1565b81146194ad57600080fd5b50565b6194b981618cd3565b81146194c457600080fd5b50565b6194d081618ce5565b81146194db57600080fd5b50565b6194e781618cf1565b81146194f257600080fd5b50565b6194fe81618d03565b811461950957600080fd5b50565b61951581618d15565b811461952057600080fd5b50565b61952c81618d27565b811461953757600080fd5b50565b6004811061954757600080fd5b50565b61955381618d6c565b811461955e57600080fd5b50565b61956a81618d76565b811461957557600080fd5b5056fea264697066735822122044a3831630a9b319234be98ae2225910f505886e92eea045effb28b1ab6ee68664736f6c63430008060033",
  "immutableReferences": {},
  "source": "// SPDX-License-Identifier: UNLICENSED\npragma solidity 0.8.6;\n\nimport \"./CToken.sol\";\nimport \"./CTokenInterfaces.sol\";\n\n/**\n * @title tropykus CErc20 Contract\n * @notice CTokens which wrap an EIP-20 underlying\n * @author tropykus\n */\ncontract CErc20 is CToken, CErc20Interface {\n    /**\n     * @notice Initialize the new money market\n     * @param underlying_ The address of the underlying asset\n     * @param comptroller_ The address of the Comptroller\n     * @param interestRateModel_ The address of the interest rate model\n     * @param initialExchangeRateMantissa_ The initial exchange rate, scaled by 1e18\n     * @param name_ ERC-20 name of this token\n     * @param symbol_ ERC-20 symbol of this token\n     * @param decimals_ ERC-20 decimal precision of this token\n     */\n    function initialize(\n        address underlying_,\n        ComptrollerInterface comptroller_,\n        InterestRateModel interestRateModel_,\n        uint256 initialExchangeRateMantissa_,\n        string memory name_,\n        string memory symbol_,\n        uint8 decimals_\n    ) public {\n        // CToken initialize does the bulk of the work\n        super.initialize(\n            comptroller_,\n            interestRateModel_,\n            initialExchangeRateMantissa_,\n            name_,\n            symbol_,\n            decimals_\n        );\n\n        // Set underlying and sanity check it\n        underlying = underlying_;\n        EIP20Interface(underlying).totalSupply();\n    }\n\n    /*** User Interface ***/\n\n    /**\n     * @notice Sender supplies assets into the market and receives cTokens in exchange\n     * @dev Accrues interest whether or not the operation succeeds, unless reverted\n     * @param mintAmount The amount of the underlying asset to supply\n     * @return uint 0=success, otherwise a failure (see ErrorReporter.sol for details)\n     */\n    function mint(uint256 mintAmount) external override returns (uint256) {\n        (uint256 err, ) = mintInternal(mintAmount);\n        return err;\n    }\n\n    /**\n     * @notice Sender redeems cTokens in exchange for a specified amount of underlying asset\n     * @dev Accrues interest whether or not the operation succeeds, unless reverted\n     * @param redeemAmount The amount of underlying to redeem\n     * @return uint 0=success, otherwise a failure (see ErrorReporter.sol for details)\n     */\n    function redeem(uint256 redeemAmount)\n        external\n        override\n        returns (uint256)\n    {\n        return redeemUnderlyingInternal(redeemAmount);\n    }\n\n    /**\n     * @notice Sender borrows assets from the protocol to their own address\n     * @param borrowAmount The amount of the underlying asset to borrow\n     * @return uint 0=success, otherwise a failure (see ErrorReporter.sol for details)\n     */\n    function borrow(uint256 borrowAmount) external override returns (uint256) {\n        return borrowInternal(borrowAmount);\n    }\n\n    /**\n     * @notice Sender repays their own borrow\n     * @param repayAmount The amount to repay\n     * @return uint 0=success, otherwise a failure (see ErrorReporter.sol for details)\n     */\n    function repayBorrow(uint256 repayAmount)\n        external\n        override\n        returns (uint256)\n    {\n        (uint256 err, ) = repayBorrowInternal(repayAmount);\n        return err;\n    }\n\n    /**\n     * @notice The sender liquidates the borrowers collateral.\n     *  The collateral seized is transferred to the liquidator.\n     * @param borrower The borrower of this cToken to be liquidated\n     * @param repayAmount The amount of the underlying borrowed asset to repay\n     * @param cTokenCollateral The market in which to seize collateral from the borrower\n     * @return uint 0=success, otherwise a failure (see ErrorReporter.sol for details)\n     */\n    function liquidateBorrow(\n        address borrower,\n        uint256 repayAmount,\n        CTokenInterface cTokenCollateral\n    ) external override returns (uint256) {\n        (uint256 err, ) = liquidateBorrowInternal(\n            borrower,\n            repayAmount,\n            cTokenCollateral\n        );\n        return err;\n    }\n\n    /**\n     * @notice A public function to sweep accidental ERC-20 transfers to this contract. Tokens are sent to admin (timelock)\n     * @param token The address of the ERC-20 token to sweep\n     */\n    function sweepToken(EIP20NonStandardInterface token) external override {\n        require(address(token) != underlying, \"EC01\");\n        uint256 balance = token.balanceOf(address(this));\n        token.transfer(admin, balance);\n    }\n\n    /**\n     * @notice The sender adds to reserves.\n     * @param addAmount The amount fo underlying token to add as reserves\n     * @return uint 0=success, otherwise a failure (see ErrorReporter.sol for details)\n     */\n    function _addReserves(uint256 addAmount)\n        external\n        override\n        returns (uint256)\n    {\n        return _addReservesInternal(addAmount);\n    }\n\n    /*** Safe Token ***/\n\n    /**\n     * @notice Gets balance of this contract in terms of the underlying\n     * @dev This excludes the value of the current message, if any\n     * @return The quantity of underlying tokens owned by this contract\n     */\n    function getCashPrior() internal view override returns (uint256) {\n        EIP20Interface token = EIP20Interface(underlying);\n        return token.balanceOf(address(this));\n    }\n\n    /**\n     * @dev Similar to EIP20 transfer, except it handles a False result from `transferFrom` and reverts in that case.\n     *      This will revert due to insufficient balance or insufficient allowance.\n     *      This function returns the actual amount received,\n     *      which may be less than `amount` if there is a fee attached to the transfer.\n     *\n     *      Note: This wrapper safely handles non-standard ERC-20 tokens that do not return a value.\n     *            See here: https://medium.com/coinmonks/missing-return-value-bug-at-least-130-tokens-affected-d67bf08521ca\n     */\n    function doTransferIn(address from, uint256 amount)\n        internal\n        override\n        returns (uint256)\n    {\n        EIP20NonStandardInterface token = EIP20NonStandardInterface(underlying);\n        uint256 balanceBefore = EIP20Interface(underlying).balanceOf(\n            address(this)\n        );\n        token.transferFrom(from, address(this), amount);\n\n        bool success;\n        assembly {\n            switch returndatasize()\n            case 0 {\n                // This is a non-standard ERC-20\n                success := not(0) // set success to true\n            }\n            case 32 {\n                // This is a compliant ERC-20\n                returndatacopy(0, 0, 32)\n                success := mload(0) // Set `success = returndata` of external call\n            }\n            default {\n                // This is an excessively non-compliant ERC-20, revert.\n                revert(0, 0)\n            }\n        }\n        require(success, \"EC02\");\n\n        // Calculate the amount that was *actually* transferred\n        uint256 balanceAfter = EIP20Interface(underlying).balanceOf(\n            address(this)\n        );\n        require(balanceAfter >= balanceBefore, \"EC03\");\n        return balanceAfter - balanceBefore; // underflow already checked above, just subtract\n    }\n\n    /**\n     * @dev Similar to EIP20 transfer, except it handles a False success from `transfer` and returns an explanatory\n     *      error code rather than reverting. If caller has not called checked protocol's balance, this may revert due to\n     *      insufficient cash held in this contract. If caller has checked protocol's balance prior to this call, and verified\n     *      it is >= amount, this should not revert in normal conditions.\n     *\n     *      Note: This wrapper safely handles non-standard ERC-20 tokens that do not return a value.\n     *            See here: https://medium.com/coinmonks/missing-return-value-bug-at-least-130-tokens-affected-d67bf08521ca\n     */\n    function doTransferOut(address payable to, uint256 amount)\n        internal\n        virtual\n        override\n    {\n        EIP20NonStandardInterface token = EIP20NonStandardInterface(underlying);\n        token.transfer(to, amount);\n\n        bool success;\n        assembly {\n            switch returndatasize()\n            case 0 {\n                // This is a non-standard ERC-20\n                success := not(0) // set success to true\n            }\n            case 32 {\n                // This is a complaint ERC-20\n                returndatacopy(0, 0, 32)\n                success := mload(0) // Set `success = returndata` of external call\n            }\n            default {\n                // This is an excessively non-compliant ERC-20, revert.\n                revert(0, 0)\n            }\n        }\n        require(success, \"CE01\");\n    }\n}\n",
  "sourcePath": "/Users/shenshin/Projects/IOV/block-clock-svg-nft/contracts/CErc20.sol",
  "compiler": {
    "name": "solc",
    "version": "0.8.6+commit.11564f7e.Emscripten.clang"
  },
  "schemaVersion": "3.4.3",
  "updatedAt": "2021-10-13T20:33:43.256Z",
  "devdoc": {
    "author": "tropykus",
    "kind": "dev",
    "methods": {
      "_acceptAdmin()": {
        "details": "Admin function for pending admin to accept role and update admin",
        "returns": {
          "_0": "uint 0=success, otherwise a failure (see ErrorReporter.sol for details)"
        }
      },
      "_addReserves(uint256)": {
        "params": {
          "addAmount": "The amount fo underlying token to add as reserves"
        },
        "returns": {
          "_0": "uint 0=success, otherwise a failure (see ErrorReporter.sol for details)"
        }
      },
      "_reduceReserves(uint256)": {
        "params": {
          "reduceAmount": "Amount of reduction to reserves"
        },
        "returns": {
          "_0": "uint 0=success, otherwise a failure (see ErrorReporter.sol for details)"
        }
      },
      "_setComptroller(address)": {
        "details": "Admin function to set a new comptroller",
        "returns": {
          "_0": "uint 0=success, otherwise a failure (see ErrorReporter.sol for details)"
        }
      },
      "_setInterestRateModel(address)": {
        "details": "Admin function to accrue interest and update the interest rate model",
        "params": {
          "newInterestRateModel": "the new interest rate model to use"
        },
        "returns": {
          "_0": "uint 0=success, otherwise a failure (see ErrorReporter.sol for details)"
        }
      },
      "_setPendingAdmin(address)": {
        "details": "Admin function to begin change of admin. The newPendingAdmin must call `_acceptAdmin` to finalize the transfer.",
        "params": {
          "newPendingAdmin": "New pending admin."
        },
        "returns": {
          "_0": "uint 0=success, otherwise a failure (see ErrorReporter.sol for details)"
        }
      },
      "_setReserveFactor(uint256)": {
        "details": "Admin function to accrue interest and set a new reserve factor",
        "returns": {
          "_0": "uint 0=success, otherwise a failure (see ErrorReporter.sol for details)"
        }
      },
      "accrueInterest()": {
        "details": "This calculates interest accrued from the last checkpointed block   up to the current block and writes new checkpoint to storage."
      },
      "allowance(address,address)": {
        "params": {
          "owner": "The address of the account which owns the tokens to be spent",
          "spender": "The address of the account which may transfer tokens"
        },
        "returns": {
          "_0": "The number of tokens allowed to be spent (-1 means infinite)"
        }
      },
      "approve(address,uint256)": {
        "details": "This will overwrite the approval amount for `spender`  and is subject to issues noted [here](https://eips.ethereum.org/EIPS/eip-20#approve)",
        "params": {
          "amount": "The number of tokens that are approved (-1 means infinite)",
          "spender": "The address of the account which may transfer tokens"
        },
        "returns": {
          "_0": "Whether or not the approval succeeded"
        }
      },
      "balanceOf(address)": {
        "params": {
          "owner": "The address of the account to query"
        },
        "returns": {
          "_0": "The number of tokens owned by `owner`"
        }
      },
      "balanceOfUnderlying(address)": {
        "details": "This also accrues interest in a transaction",
        "params": {
          "owner": "The address of the account to query"
        },
        "returns": {
          "_0": "The amount of underlying owned by `owner`"
        }
      },
      "borrow(uint256)": {
        "params": {
          "borrowAmount": "The amount of the underlying asset to borrow"
        },
        "returns": {
          "_0": "uint 0=success, otherwise a failure (see ErrorReporter.sol for details)"
        }
      },
      "borrowBalanceCurrent(address)": {
        "params": {
          "account": "The address whose balance should be calculated after updating borrowIndex"
        },
        "returns": {
          "_0": "The calculated balance"
        }
      },
      "borrowBalanceStored(address)": {
        "params": {
          "account": "The address whose balance should be calculated"
        },
        "returns": {
          "_0": "The calculated balance"
        }
      },
      "borrowRatePerBlock()": {
        "returns": {
          "_0": "The borrow interest rate per block, scaled by 1e18"
        }
      },
      "exchangeRateCurrent()": {
        "returns": {
          "_0": "Calculated exchange rate scaled by 1e18"
        }
      },
      "exchangeRateStored()": {
        "details": "This function does not accrue interest before calculating the exchange rate",
        "returns": {
          "_0": "Calculated exchange rate scaled by 1e18"
        }
      },
      "getAccountSnapshot(address)": {
        "details": "This is used by comptroller to more efficiently perform liquidity checks.",
        "params": {
          "account": "Address of the account to snapshot"
        },
        "returns": {
          "_0": "(possible error, token balance, borrow balance, exchange rate mantissa)"
        }
      },
      "getCash()": {
        "returns": {
          "_0": "The quantity of underlying asset owned by this contract"
        }
      },
      "initialize(address,address,address,uint256,string,string,uint8)": {
        "params": {
          "comptroller_": "The address of the Comptroller",
          "decimals_": "ERC-20 decimal precision of this token",
          "initialExchangeRateMantissa_": "The initial exchange rate, scaled by 1e18",
          "interestRateModel_": "The address of the interest rate model",
          "name_": "ERC-20 name of this token",
          "symbol_": "ERC-20 symbol of this token",
          "underlying_": "The address of the underlying asset"
        }
      },
      "initialize(address,address,uint256,string,string,uint8)": {
        "params": {
          "comptroller_": "The address of the Comptroller",
          "decimals_": "EIP-20 decimal precision of this token",
          "initialExchangeRateMantissa_": "The initial exchange rate, scaled by 1e18",
          "interestRateModel_": "The address of the interest rate model",
          "name_": "EIP-20 name of this token",
          "symbol_": "EIP-20 symbol of this token"
        }
      },
      "liquidateBorrow(address,uint256,address)": {
        "params": {
          "borrower": "The borrower of this cToken to be liquidated",
          "cTokenCollateral": "The market in which to seize collateral from the borrower",
          "repayAmount": "The amount of the underlying borrowed asset to repay"
        },
        "returns": {
          "_0": "uint 0=success, otherwise a failure (see ErrorReporter.sol for details)"
        }
      },
      "mint(uint256)": {
        "details": "Accrues interest whether or not the operation succeeds, unless reverted",
        "params": {
          "mintAmount": "The amount of the underlying asset to supply"
        },
        "returns": {
          "_0": "uint 0=success, otherwise a failure (see ErrorReporter.sol for details)"
        }
      },
      "redeem(uint256)": {
        "details": "Accrues interest whether or not the operation succeeds, unless reverted",
        "params": {
          "redeemAmount": "The amount of underlying to redeem"
        },
        "returns": {
          "_0": "uint 0=success, otherwise a failure (see ErrorReporter.sol for details)"
        }
      },
      "repayBorrow(uint256)": {
        "params": {
          "repayAmount": "The amount to repay"
        },
        "returns": {
          "_0": "uint 0=success, otherwise a failure (see ErrorReporter.sol for details)"
        }
      },
      "seize(address,address,uint256)": {
        "details": "Will fail unless called by another cToken during the process of liquidation.  Its absolutely critical to use msg.sender as the borrowed cToken and not a parameter.",
        "params": {
          "borrower": "The account having collateral seized",
          "liquidator": "The account receiving seized collateral",
          "seizeTokens": "The number of cTokens to seize"
        },
        "returns": {
          "_0": "uint 0=success, otherwise a failure (see ErrorReporter.sol for details)"
        }
      },
      "supplyRatePerBlock()": {
        "returns": {
          "_0": "The supply interest rate per block, scaled by 1e18"
        }
      },
      "sweepToken(address)": {
        "params": {
          "token": "The address of the ERC-20 token to sweep"
        }
      },
      "totalBorrowsCurrent()": {
        "returns": {
          "_0": "The total borrows with interest"
        }
      },
      "transfer(address,uint256)": {
        "params": {
          "amount": "The number of tokens to transfer",
          "dst": "The address of the destination account"
        },
        "returns": {
          "_0": "Whether or not the transfer succeeded"
        }
      },
      "transferFrom(address,address,uint256)": {
        "params": {
          "amount": "The number of tokens to transfer",
          "dst": "The address of the destination account",
          "src": "The address of the source account"
        },
        "returns": {
          "_0": "Whether or not the transfer succeeded"
        }
      }
    },
    "title": "tropykus CErc20 Contract",
    "version": 1
  },
  "userdoc": {
    "events": {
      "AccrueInterest(uint256,uint256,uint256,uint256)": {
        "notice": "Event emitted when interest is accrued"
      },
      "Approval(address,address,uint256)": {
        "notice": "EIP20 Approval event"
      },
      "Borrow(address,uint256,uint256,uint256)": {
        "notice": "Event emitted when underlying is borrowed"
      },
      "CTokenStorageFailure(uint256,uint256,uint256)": {
        "notice": "Failure event"
      },
      "LiquidateBorrow(address,address,uint256,address,uint256)": {
        "notice": "Event emitted when a borrow is liquidated"
      },
      "Mint(address,uint256,uint256)": {
        "notice": "Event emitted when tokens are minted"
      },
      "NewAdmin(address,address)": {
        "notice": "Event emitted when pendingAdmin is accepted, which means admin is updated"
      },
      "NewComptroller(address,address)": {
        "notice": "Event emitted when comptroller is changed"
      },
      "NewMarketInterestRateModel(address,address)": {
        "notice": "Event emitted when interestRateModel is changed"
      },
      "NewPendingAdmin(address,address)": {
        "notice": "Event emitted when pendingAdmin is changed"
      },
      "NewReserveFactor(uint256,uint256)": {
        "notice": "Event emitted when the reserve factor is changed"
      },
      "Redeem(address,uint256,uint256)": {
        "notice": "Event emitted when tokens are redeemed"
      },
      "RepayBorrow(address,address,uint256,uint256,uint256)": {
        "notice": "Event emitted when a borrow is repaid"
      },
      "ReservesAdded(address,uint256,uint256)": {
        "notice": "Event emitted when the reserves are added"
      },
      "ReservesReduced(address,uint256,uint256)": {
        "notice": "Event emitted when the reserves are reduced"
      },
      "Transfer(address,address,uint256)": {
        "notice": "EIP20 Transfer event"
      }
    },
    "kind": "user",
    "methods": {
      "_acceptAdmin()": {
        "notice": "Accepts transfer of admin rights. msg.sender must be pendingAdmin"
      },
      "_addReserves(uint256)": {
        "notice": "The sender adds to reserves."
      },
      "_reduceReserves(uint256)": {
        "notice": "Accrues interest and reduces reserves by transferring to admin"
      },
      "_setComptroller(address)": {
        "notice": "Sets a new comptroller for the market"
      },
      "_setInterestRateModel(address)": {
        "notice": "accrues interest and updates the interest rate model using _setInterestRateModelFresh"
      },
      "_setPendingAdmin(address)": {
        "notice": "Begins transfer of admin rights. The newPendingAdmin must call `_acceptAdmin` to finalize the transfer."
      },
      "_setReserveFactor(uint256)": {
        "notice": "accrues interest and sets a new reserve factor for the protocol using _setReserveFactorFresh"
      },
      "accrualBlockNumber()": {
        "notice": "Block number that interest was last accrued at"
      },
      "accrueInterest()": {
        "notice": "Applies accrued interest to total borrows and reserves"
      },
      "admin()": {
        "notice": "Administrator for this contract"
      },
      "allowance(address,address)": {
        "notice": "Get the current allowance from `owner` for `spender`"
      },
      "approve(address,uint256)": {
        "notice": "Approve `spender` to transfer up to `amount` from `src`"
      },
      "balanceOf(address)": {
        "notice": "Get the token balance of the `owner`"
      },
      "balanceOfUnderlying(address)": {
        "notice": "Get the underlying balance of the `owner`"
      },
      "borrow(uint256)": {
        "notice": "Sender borrows assets from the protocol to their own address"
      },
      "borrowBalanceCurrent(address)": {
        "notice": "Accrue interest to updated borrowIndex and then calculate account's borrow balance using the updated borrowIndex"
      },
      "borrowBalanceStored(address)": {
        "notice": "Return the borrow balance of account based on stored data"
      },
      "borrowIndex()": {
        "notice": "Accumulator of the total earned interest rate since the opening of the market"
      },
      "borrowRatePerBlock()": {
        "notice": "Returns the current per-block borrow interest rate for this cToken"
      },
      "comptroller()": {
        "notice": "Contract which oversees inter-cToken operations"
      },
      "decimals()": {
        "notice": "EIP-20 token decimals for this token"
      },
      "exchangeRateCurrent()": {
        "notice": "Accrue interest then return the up-to-date exchange rate"
      },
      "exchangeRateStored()": {
        "notice": "Calculates the exchange rate from the underlying to the CToken"
      },
      "getAccountSnapshot(address)": {
        "notice": "Get a snapshot of the account's balances, and the cached exchange rate"
      },
      "getCash()": {
        "notice": "Get cash balance of this cToken in the underlying asset"
      },
      "initialExchangeRateMantissa()": {
        "notice": "Initial exchange rate used when minting the first CTokens (used when totalSupply = 0)"
      },
      "initialize(address,address,address,uint256,string,string,uint8)": {
        "notice": "Initialize the new money market"
      },
      "initialize(address,address,uint256,string,string,uint8)": {
        "notice": "Initialize the money market"
      },
      "interestRateModel()": {
        "notice": "Model which tells what the current interest rate should be"
      },
      "isCToken()": {
        "notice": "Indicator that this is a CToken contract (for inspection)"
      },
      "liquidateBorrow(address,uint256,address)": {
        "notice": "The sender liquidates the borrowers collateral.  The collateral seized is transferred to the liquidator."
      },
      "mint(uint256)": {
        "notice": "Sender supplies assets into the market and receives cTokens in exchange"
      },
      "name()": {
        "notice": "EIP-20 token name for this token"
      },
      "pendingAdmin()": {
        "notice": "Pending administrator for this contract"
      },
      "redeem(uint256)": {
        "notice": "Sender redeems cTokens in exchange for a specified amount of underlying asset"
      },
      "repayBorrow(uint256)": {
        "notice": "Sender repays their own borrow"
      },
      "reserveFactorMantissa()": {
        "notice": "Fraction of interest currently set aside for reserves"
      },
      "seize(address,address,uint256)": {
        "notice": "Transfers collateral tokens (this market) to the liquidator."
      },
      "supplyRatePerBlock()": {
        "notice": "Returns the current per-block supply interest rate for this cToken"
      },
      "sweepToken(address)": {
        "notice": "A public function to sweep accidental ERC-20 transfers to this contract. Tokens are sent to admin (timelock)"
      },
      "symbol()": {
        "notice": "EIP-20 token symbol for this token"
      },
      "totalBorrows()": {
        "notice": "Total amount of outstanding borrows of the underlying in this market"
      },
      "totalBorrowsCurrent()": {
        "notice": "Returns the current total borrows plus accrued interest"
      },
      "totalReserves()": {
        "notice": "Total amount of reserves of the underlying held in this market"
      },
      "totalSupply()": {
        "notice": "Total number of tokens in circulation"
      },
      "transfer(address,uint256)": {
        "notice": "Transfer `amount` tokens from `msg.sender` to `dst`"
      },
      "transferFrom(address,address,uint256)": {
        "notice": "Transfer `amount` tokens from `src` to `dst`"
      },
      "underlying()": {
        "notice": "Underlying asset for this CToken"
      }
    },
    "notice": "CTokens which wrap an EIP-20 underlying",
    "version": 1
  }
}